S02300004261736963205065726970686572616C73206D65676133323870622E7372656357
S11300000C945A000C9477000C9477000C947700AD
S11300100C9477000C9477000C9477000C94770080
S11300200C9477000C9477000C9477000C94770070
S11300300C9477000C9486030C9477000C9477004E
S11300400C94BA010C9477000C9419040C94400499
S11300500C9477000C9477000C9477000C94770040
S11300600C9477000C9477000C9477000C94770030
S11300700C9477000C9477000C9477000C94770020
S11300800C9477000C9477000C9477000C94770010
S11300900C9477000C9477000C9477000C94770000
S11300A00C9477000C9477000C9477000C947700F0
S11300B00C94770011241FBECFEFD8E0DEBFCDBF74
S11300C011E0A0E0B1E0EEE1FFE002C005900D9286
S11300D0AA37B107D9F722E0AAE7B1E001C01D921F
S11300E0A532B207E1F70E9404010C948D070C9429
S11300F000000E947701089580E00E945B019093C4
S11301001E0280931D0268EE73E080E090E0089583
S1130110CF93DF93C0911D02D0911E020E9469010A
S1130120885002C0D695C7958A95E2F7D0931C02F1
S1130130C0931B0280911B0290911C020E94B80183
S113014068EE73E080E090E0DF91CF9108958091B4
S11301501D0290911E029F938F938EE491E09F93D2
S11301608F930E94AF0480911B0290911C029F9375
S11301708F9387E591E09F938F930E94AF048DB78F
S11301809EB708960FB6F8949EBF0FBE8DBF60EA67
S11301907FE080E090E0089580917C0190917D0162
S11301A09C012F5F3F4F30937D0120937C019F93EF
S11301B08F9382E691E09F938F930E94AF040F90F8
S11301C00F900F900F9060E47FE180E090E008953D
S11301D080917A0190917B019C012F5F3F4F309376
S11301E07B0120937A019F938F938EE691E09F93F6
S11301F08F930E94AF040F900F900F900F9060E8C0
S11302007EE380E090E008950E947900789448EEBF
S113021053E060E070E088E291E00E940C0348EE55
S113022053E060E070E08EE191E00E940C0340EA4C
S11302305FE060E070E084E191E00E940C0340E440
S11302405FE160E070E08AE091E00E940C0340E826
S11302505EE360E070E080E091E00E940C030E94A5
S11302605D03FDCFE4E6F0E080818E7F808380EC47
S113027080937C0084E880937A0010927B0080E075
S11302800895ECE7F0E09081907F90839081892B32
S11302908083EAE7F0E08081806480830895809120
S11302A07A00829581700895809178002091790078
S11302B090E0922B08950E9441010E944F018823EF
S11302C0E1F30E945401EAE7F0E0208120612083F9
S11302D008958AE00895569A5E980E94A9010895A7
S11302E050985898519A59980E948B0408958DE318
S11302F0809365008FEF8093640094B114B895B136
S113030085B997B1907897B998B19F6798B99AB120
S11303101AB89BB18BB98DB1807F8DB98EB18F60C6
S11303208EB940E060E881E690E00E94A20113BE2D
S113033015BE0E9432010E946B010E94D0010E94EE
S1130340700108952FB7F894FC01608340832FBF98
S11303500895E4E6F0E080818F7D808383E884BDA6
S113036082E085BD80E187BD80E288BD80E008959C
S113037087BD08951F920F920FB60F9211248F9389
S1130380A89A80917E018F5F80937E018F910F9058
S11303900FBE0F901F90189560E070E0CB01089598
S11303A0E4E6F0E08081877F808385E080938100AC
S11303B081E080936F000895EFE6F0E080818E7F06
S11303C0808310928401109285011092860110920C
S11303D0870110927F010895CF92DF92EF92FF92EE
S11303E00F931F93CF93DF93EC010E811F81288518
S11303F03985A0918A01B0918B011D821C824091A4
S113040084015091850160918601709187010417E0
S1130410150726073707C0F51696CD90DD90ED90A9
S1130420FC901997109791F0FD01468157816085E2
S113043071854C195D096E097F094683578360876E
S113044071870480F581E02D309779F7409184011C
S11304505091850160918601709187014C195D0965
S11304606E097F094093840150938501609386014E
S1130470709387012F5F3F4F0C191D092E093F0907
S11304800E831F8328873987109789F116964D911B
S11304905D916D917C91199704171507260737070D
S11304A058F425C046815781608571850417150766
S11304B026073707A0F0DF011496ED91FC911597FC
S11304C0309781F70CC080913601909137019D835C
S11304D08C83D0938B01C0938A0181E026C0FD8375
S11304E0EC831596DC93CE93149780E01EC0109293
S11304F080011092810110928201109283018091F7
S1130500800190918101A0918201B0918301909327
S1130510850080938400B09A80918A0190918B0128
S113052021E08233920799F6CECFDF91CF911F91CC
S11305300F91FF90EF90DF90CF9008950F931F934A
S1130540EFE6F0E080818E7F8083E0918A01F09174
S11305508B01309719F40E94DC015BC04091840147
S11305605091850160918601709187018681978100
S1130570A085B185841B950BA60BB70B009701E0F2
S1130580A007B10500F1409184015091850160916B
S1130590860170918701A2E3B1E0415051096F4F88
S11305A07F4F16964D935D936D937C931997159693
S11305B0FC93EE931497B0938B01A0938A018FEF71
S11305C09FEFA0E0B0E04FEF5FEF60E070E08A01E2
S11305D09B01081B190B2A0B3B0B00938001109302
S11305E08101209382013093830180918001909155
S11305F08101A0918201B091830190938500809341
S11306008400EFE6F0E080818160808381E0809364
S11306107F011F910F910895CF92DF92EF92FF9285
S11306200F931F93EFE6F0E020812E7F208300914B
S11306308401109185012091860130918701400F3A
S1130640511F621F731F20917F01222399F0009193
S1130650840010918500C0908001D0908101E090C9
S11306608201F090830120E030E00C191D092E096D
S11306703F0903C000E010E09801400F511F621FC2
S1130680731FFC0146835783608771870E94EC01C6
S1130690882319F00E949E0209C080917F0188235B
S11306A029F0EFE6F0E08081816080831F910F9153
S11306B0FF90EF90DF90CF900895CF93DF938091D8
S11306C0880190918901892BF1F00FB6F8940F926B
S11306D0C0918801D09189018C819D819093890179
S11306E0809388010F900FBEE881F9818A819B81F4
S11306F00995611571058105910529F0AB01BC01CE
S1130700CE010E940C03DF91CF9108951F920F92A6
S11307100FB60F9211242F933F934F935F936F93D0
S11307207F938F939F93AF93BF93EF93FF93A09186
S11307308A01B0918B0114962D913C9115971696D0
S11307404D915D916D917C911997409384015093E3
S11307508501609386017093870110928001109245
S11307608101109282011092830181E0A233B807C3
S1130770B1F015961C921E921497E0918801F091A5
S11307808901309731F4B0938901A093880107C09F
S1130790FC01848195810097D9F7B583A4833093B4
S11307A08B0120938A010E949E02FF91EF91BF91D9
S11307B0AF919F918F917F916F915F914F913F91F5
S11307C02F910F900FBE0F901F9018958091C60027
S11307D0E0911102EF5FE770E09311029091100233
S11307E0F0E0EE5EFD4F808380910F028F5F809377
S11307F00F02089580918C01882389F0E0918D0186
S1130800EF5FEF77E0938D01F0E0E157FE4F8081D9
S11308108093C60080918C01815080938C018091DB
S11308208C01811105C0E1ECF0E080818F7D808333
S113083008951F920F920FB60F9211242F933F9396
S11308404F935F936F937F938F939F93AF93BF93D4
S1130850EF93FF93E0913E01F0913F010995FF91E1
S1130860EF91BF91AF919F918F917F916F915F9124
S11308704F913F912F910F900FBE0F901F9018959D
S11308801F920F920FB60F9211242F933F934F9301
S11308905F936F937F938F939F93AF93BF93EF93E4
S11308A0FF93E0913C01F0913D010995FF91EF9197
S11308B0BF91AF919F918F917F916F915F914F9174
S11308C03F912F910F900FBE0F901F90189520917C
S11308D08E012F5F2F7790918C019038E1F3E22FF6
S11308E0F0E0E157FE4F808320938E010FB6F89419
S11308F00F9280918C018F5F80938C010F900FBEBB
S1130900E1ECF0E080818062808308950E946704B6
S113091080E090E00895E4E6F0E080818D7F8083BC
S11309201092C50082E28093C40082E08093C000EC
S113093088E98093C1001092100210921102109263
S11309400F0210928D0110928E0110928C0180E49E
S113095091E0909322028093210280E00895A0E028
S1130960B0E0E5EBF4E00C946607AE014B5F5F4F3B
S1130970FA0161917191AF0180912102909122025B
S11309800E94C504E2E00C948207ABE0B0E0EBEC1B
S1130990F4E00C9456076C017B018A01FC01178278
S11309A01682838181FFCCC1CE0101963C01F60100
S11309B09381F70193FD859193FF81917F018823B2
S11309C009F4BAC1853239F493FD859193FF81917D
S11309D07F01853229F4B60190E00E94BC06E7CF7E
S11309E0912C212C312CFFE1F315D8F08B3279F0C6
S11309F038F4803279F08332A1F4232D20611DC0B4
S1130A008D3261F0803369F4232D216016C0832D6B
S1130A108260382EE32DE4603E2E2AC0F32DF86068
S1130A201DC037FC2DC020ED280F2A3040F08E3237
S1130A30B9F436FC81C1232D2064322E19C036FE50
S1130A4006C08AE0989E200D1124922E11C0EAE07F
S1130A502E9E200D1124222EF32DF0623F2E08C06D
S1130A608C3621F4832D8068382E02C0883641F4F8
S1130A70F70193FD859193FF81917F018111B3CF9C
S1130A80982F9F7D9554933028F40C5F1F4F9FE35C
S1130A9099830DC0833631F0833771F0833509F0C3
S1130AA059C021C0F801808189830E5F1F4F8824BB
S1130AB08394912C530113C02801F2E04F0E511C72
S1130AC0F801A080B18036FE03C0692D70E002C039
S1130AD06FEF7FEFC5010E94B1064C018201F32D37
S1130AE0FF773F2E16C0280122E0420E511CF80168
S1130AF0A080B18036FE03C0692D70E002C06FEFA4
S1130B007FEFC5010E94A6064C01F32DF0683F2E2D
S1130B10820133FC1BC0822D90E088169906B0F444
S1130B20B60180E290E00E94BC062A94F4CFF5015D
S1130B3037FC859137FE81915F01B60190E00E94F8
S1130B40BC0621102A9421E0821A91088114910490
S1130B5071F7E8C0843611F0893641F5F80137FEA3
S1130B6007C060817181828193810C5F1F4F08C02F
S1130B7060817181072E000C880B990B0E5F1F4F4B
S1130B80F32DFF763F2E97FF09C0909580957095C1
S1130B9061957F4F8F4F9F4FF0683F2E2AE030E0E2
S1130BA0A3010E94F806882E861845C0853731F4C3
S1130BB0232D2F7EB22E2AE030E025C0932D997F7D
S1130BC0B92E8F36C1F018F4883579F0B5C0803766
S1130BD019F0883721F0B0C0E92FE061BE2EB4FED1
S1130BE00DC0FB2DF460BF2E09C034FE0AC0292FAE
S1130BF02660B22E06C028E030E005C020E130E0D7
S1130C0002C020E132E0F801B7FE07C060817181C3
S1130C10828193810C5F1F4F06C06081718180E0E7
S1130C2090E00E5F1F4FA3010E94F806882E8618DD
S1130C30FB2DFF773F2E36FE0DC0232D2E7FA22ED7
S1130C40891458F434FE0BC032FC09C0832D8E7E07
S1130C50A82E05C0B82CA32C03C0B82C01C0B92CF5
S1130C60A4FE0FC0FE01E80DF11D8081803321F444
S1130C709A2D997EA92E09C0A2FE06C0B394B394FE
S1130C8004C08A2D867809F0B394A3FC11C0A0FE99
S1130C9006C0B21488F4280C922C9B180EC0B2140F
S1130CA060F4B60180E290E00E94BC06B394F7CFF2
S1130CB0B21418F42B1802C0982C212CA4FE10C0D6
S1130CC0B60180E390E00E94BC06A2FE17C0A1FC1E
S1130CD003C088E790E002C088E590E0B6010CC04C
S1130CE08A2D867859F0A1FE02C08BE201C080E211
S1130CF0A7FC8DE2B60190E00E94BC06891438F48A
S1130D00B60180E390E00E94BC069A94F7CF8A94DF
S1130D10F301E80DF11D8081B60190E00E94BC064C
S1130D208110F5CF222009F442CEB60180E290E092
S1130D300E94BC062A94F6CFF6018681978102C0F0
S1130D408FEF9FEF2B96E2E10C947207FC01059064
S1130D50615070400110D8F7809590958E0F9F1FB9
S1130D600895FC016150704001900110D8F78095FE
S1130D7090958E0F9F1F08950F931F93CF93DF932A
S1130D80FB01238121FD03C08FEF9FEF2CC022FFC5
S1130D9016C046815781248135814217530744F494
S1130DA0A081B1819D012F5F3F4F318320838C93BC
S1130DB0268137812F5F3F4F3783268314C08B01F1
S1130DC0EC01FB010084F185E02D0995892BE1F606
S1130DD0D80116968D919C911797019617969C931E
S1130DE08E931697CE01DF91CF911F910F910895A5
S1130DF0FA01AA27283051F1203181F1E8946F9348
S1130E006E7F6E5F7F4F8F4F9F4FAF4FB1E03ED0ED
S1130E10B4E03CD0670F781F891F9A1FA11D680F8B
S1130E20791F8A1F911DA11D6A0F711D811D911DBE
S1130E30A11D20D009F468943F912AE0269F112433
S1130E403019305D3193DEF6CF010895462F477097
S1130E50405D4193B3E00FD0C9F7F6CF462F4F70F2
S1130E60405D4A3318F0495D31FD4052419302D050
S1130E70A9F7EACFB4E0A6959795879577956795F6
S1130E80BA95C9F700976105710508959B01AC01F6
S1130E900A2E06945795479537952795BA95C9F71D
S1130EA0620F731F841F951FA01D08952F923F92F8
S1130EB04F925F926F927F928F929F92AF92BF9266
S1130EC0CF92DF92EF92FF920F931F93CF93DF9312
S1130ED0CDB7DEB7CA1BDB0B0FB6F894DEBF0FBE6F
S1130EE0CDBF09942A88398848885F846E847D84BC
S1130EF08C849B84AA84B984C884DF80EE80FD80BE
S1130F000C811B81AA81B981CE0FD11D0FB6F89433
S1110F10DEBF0FBECDBFED010895F894FFCFF4
S1130F1EE8000000000000000000CC00000000000B
S1130F2E00000000A7000000000000000000880080
S1130F3E00000000000000007C0000000000000023
S1130F4E0000CC010000000000000000FA03E603DC
S1130F5E000000020000000086040000000041446E
S1130F6E433D25640D0A0044757479433D25640D93
S1130F7E0A00636C6F636B313D25640D0A00636C6C
S10D0F8E6F636B323D25640D0A0009
S9030000FC
