:100000000C9434000C947C000C9451000C9451001E
:100010000C94E4000C9451000C9451000C942501B4
:100020000C9451000C9451000C9451000C9453000A
:100030000C9451000C9451000C9451000C945100FC
:100040000C94C8000C9451000C9451000C94510075
:100050000C9451000C9451000C9451000C945100DC
:100060000C9451000C94510011241FBECFEFD8E026
:10007000DEBFCDBF11E0A0E0B1E0ECE5F8E002C0EA
:1000800005900D92A630B107D9F721E0A6E0B1E0C6
:1000900001C01D92AD30B207E1F70E9455010C94EA
:1000A0002C040C9400001F920F920FB60F92112493
:1000B0008F939F93EF93FF93F894809106018F5F46
:1000C0008093060190910001891760F0E1E8F0E06B
:1000D0008081887F8083109208011092060188B188
:1000E000887F88B97894FF91EF919F918F910F90BD
:1000F0000FBE0F901F9018951F920F920FB60F9280
:1001000011242F933F934F935F936F937F938F931C
:100110009F93AF93BF93EF93FF93F8944A9B0CC0C8
:1001200080910C01811120C00AC080910C018823AC
:10013000C1F00DC078941BC04A9BF7CF12C016BC0B
:1001400085B5846085BD81E080930C01F3CF10926A
:100150000C0185B58B7F85BDE89886B50E94760237
:10016000E9CF10920C01E6CF4A99FBCFF0CFFF9177
:10017000EF91BF91AF919F918F917F916F915F911F
:100180004F913F912F910F900FBE0F901F90189598
:100190001F920F920FB60F9211248F93EF93FF933C
:1001A000F89485B58B7F85BDEEE6F0E080818E7F8B
:1001B000808310920C017894FF91EF918F910F90B2
:1001C0000FBE0F901F9018951F920F920FB60F92AF
:1001D00011242F933F934F935F936F937F938F934C
:1001E0009F93AF93BF93EF93FF93F894339B1BC000
:1001F00080910B01882351F01092B200E1EBF0E006
:1002000080818660808310920B010DC080910A016D
:10021000882349F0ECE6F0E08081877F80830E94AC
:10022000920110920A017894FF91EF91BF91AF91E2
:100230009F918F917F916F915F914F913F912F91FE
:100240000F900FBE0F901F9018951F920F920FB630
:100250000F9211242F933F934F935F936F937F934C
:100260008F939F93AF93BF93EF93FF93F8948091F5
:1002700009010E946301E1EBF0E08081897F8083C6
:1002800081E080930A017894FF91EF91BF91AF9143
:100290009F918F917F916F915F914F913F912F919E
:1002A0000F900FBE0F901F901895209A64EB80E07E
:1002B0000E94140262E382E390E00E94BB010E946C
:1002C00091027894FFCF90910101981749F19130F4
:1002D00039F018F0923039F009C05B98409A0CC0A0
:1002E0005C98419A09C05D98429A06C09BB1977C80
:1002F0009BB998B1987F98B9813039F018F0823065
:1003000039F008C040985B9A05C041985C9A02C0D9
:1003100042985D9A8093010181E0809307010895DE
:1003200080E00895209184003091850080918600BE
:1003300090918700969587958217930750F4809146
:1003400086009091870001979093850080938400A8
:1003500004C01092850010928400E1E8F0E08081F2
:1003600082608083109206011092080110920701AA
:100370000E94910208959C0197B1976097B99AB134
:1003800098639AB9219A60930001E0E8F0E09081C7
:1003900092609083A1E8B0E09C9198619C939081D9
:1003A00090689083EFE6F0E090819260908324362D
:1003B000310599F024F42233310541F022C0283C64
:1003C000310591F02C323140B1F01BC08FE39CE934
:1003D000909387008093860014C08FE19EE49093F1
:1003E0008700809386000DC08FE097E2909387008E
:1003F0008093860006C089E09AE1909387008093FD
:10040000860085EB9BE09093890080938800109292
:100410008500109284008BB1877C8BB988B187608E
:1004200088B90E9492010895CF93DF93D62F8B3520
:100430000CF08AE5682F863A0CF466EA062E000C6A
:10044000770B880B990B0E94330320E030E040E2E9
:100450005FE30E94BF0320E030E84BEB52E40E94D0
:1004600096020E940203C62F609304016D2F70E074
:1004700080E090E00E94310320E030E040E05FE364
:100480000E94BF0320E030E040E25FE30E94BF0330
:1004900020E030E040E05FE30E94BF030E940203DF
:1004A0008C2F861B809303016C0F60930201EEE694
:1004B000F0E0808181608083E0EBF0E08081826009
:1004C00080838BEB8093B300E0E7F0E08081826073
:1004D0008083E8E6F0E0808182608083E9E6F0E0F6
:1004E000808181608083DF91CF9108959091020196
:1004F000891720F082E0809309010AC090910301DE
:10050000981718F01092090103C081E08093090147
:1005100081E080930B01ECE6F0E0808188608083CD
:10052000089510920C01E89A08955058BB27AA2705
:100530000E94AD020C9485030E94770338F00E945C
:100540007E0320F039F49F3F19F426F40C947403D1
:100550000EF4E095E7FB0C946E03E92F0E949603DE
:1005600058F3BA17620773078407950720F079F4E8
:10057000A6F50C94B8030EF4E0950B2EBA2FA02D1F
:100580000B01B90190010C01CA01A0011124FF2740
:10059000591B99F0593F50F4503E68F11A16F0403B
:1005A000A22F232F342F4427585FF3CF469537953A
:1005B0002795A795F0405395C9F77EF41F16BA0BFF
:1005C000620B730B840BBAF09150A1F0FF0FBB1FAD
:1005D000661F771F881FC2F70EC0BA0F621F731FF6
:1005E000841F48F4879577956795B795F7959E3F53
:1005F00008F0B0CF9395880F08F09927EE0F9795E4
:10060000879508950E949E0388F09F5798F0B92F10
:100610009927B751B0F0E1F0660F771F881F991F37
:100620001AF0BA95C9F714C0B13091F00E94B8031E
:10063000B1E008950C94B803672F782F8827B85F2E
:1006400039F0B93FCCF3869577956795B395D9F78F
:100650003EF490958095709561957F4F8F4F9F4F99
:100660000895E89409C097FB3EF4909580957095A5
:1006700061957F4F8F4F9F4F9923A9F0F92F96E9EE
:10068000BB279395F695879577956795B795F11163
:10069000F8CFFAF4BB0F11F460FF1BC06F5F7F4F00
:1006A0008F4F9F4F16C0882311F096E911C0772312
:1006B00021F09EE8872F762F05C0662371F096E81B
:1006C000862F70E060E02AF09A95660F771F881FEA
:1006D000DAF7880F9695879597F9089597F99F67A8
:1006E00080E870E060E008959FEF80EC08950024BA
:1006F0000A941616170618060906089500240A9487
:1007000012161306140605060895092E0394000C0C
:1007100011F4882352F0BB0F40F4BF2B11F460FF9B
:1007200004C06F5F7F4F8F4F9F4F089557FD9058C4
:10073000440F551F59F05F3F71F04795880F97FBA5
:10074000991F61F09F3F79F087950895121613065F
:100750001406551FF2CF4695F1DF08C0161617068E
:100760001806991FF1CF86957105610508940895C3
:10077000E894BB2766277727CB0197F908950E9455
:10078000D2030C9485030E94770338F00E947E0305
:1007900020F0952311F00C946E030C947403112433
:1007A0000C94B9030E94960370F3959FC1F3950FC3
:1007B00050E0551F629FF001729FBB27F00DB11DE5
:1007C000639FAA27F00DB11DAA1F649F6627B00D75
:1007D000A11D661F829F2227B00DA11D621F739F5E
:1007E000B00DA11D621F839FA00D611D221F749F6C
:1007F0003327A00D611D231F849F600D211D822FB3
:10080000762F6A2F11249F5750409AF0F1F08823D9
:100810004AF0EE0FFF1FBB1F661F771F881F915006
:100820005040A9F79E3F510580F00C946E030C9444
:10083000B9035F3FE4F3983ED4F3869577956795C7
:10084000B795F795E7959F5FC1F7FE2B880F911D30
:0C0850009695879597F90895F894FFCFCE
:06085C0032036D4E5E0048
:00000001FF
