S01A0000536572766F54776F546F53697844656275672E73726563E3
S11300000C9436000C945E000C945E000C945E001C
S11300100C945E000C945E000C945E000C945E00E4
S11300200C945E000C945E000C945E000C945E00D4
S11300300C945E000C945E000C945E000C945E00C4
S11300400C945E000C945E000C945E000C945E00B4
S11300500C945E000C945E000C945E000C945E00A4
S11300600C945E000C945E0075007A0011241FBE8F
S1130070CFEFD8E0DEBFCDBF11E0A0E0B1E0E2E811
S1130080F1E002C005900D92A630B107D9F721E046
S1130090A6E0B1E001C01D92A730B207E1F710E07D
S11300A0C5E3D0E004C02197FE010E94AE00C43332
S11300B0D107C9F70E9460000C94B4000C940000AE
S11300C086E091E00E94A80060E071E086E091E0A3
S11300D00E94870061E686E091E00E947F0062E66C
S11300E086E091E00E947F00F5CF86E091E00E94D7
S11300F09C00089586E091E00E94A7000895E0EC3A
S1130100F0E0808185FFFDCF6093C60008950F93D2
S11301101F93CF93DF93EB016881662341F08C0139
S11301202196C8010E947F0069916111FACFDF9185
S1130130CF911F910F9108951092C50083E380938E
S1130140C400E2ECF0E08081866080830895089525
S1130150E1ECF0E08081886180830895EE0FFF1F59
S11301600590F491E02D099410E0C5E3D0E004C0BB
S1130170FE010E94AE002196C633D107C9F7F89458
S1050180FFCFAB
S1090182546573740000D3
S9030000FC
