:100000000C9436000C9460000C945E000C945E001E
:100010000C94AC000C945E000C945E000C940301F4
:100020000C945E000C945E000C945E000C945E00D8
:100030000C945E000C945E000C945E000C945E00C8
:100040000C945E000C945E000C945E000C945E00B8
:100050000C945E000C945E000C945E000C945E00A8
:100060000C945E000C945E0086018F0111241FBE6B
:10007000CFEFD8E0DEBFCDBF15E0A0E0B1E0E0ED0E
:10008000F2E102C005900D92A23CB107D9F726E03B
:10009000A2ECB5E001C01D92A630B207E1F710E076
:1000A000C5E3D0E004C02197FE010E94C808C43314
:1000B000D107C9F70E9434010C945B090C9400002D
:1000C0001F920F920FB60F9211242F933F934F93CD
:1000D0005F936F937F938F939F93AF93BF93EF93B0
:1000E000FF9380E00E94E40286B54A9B08C0289AEC
:1000F00016BC81E0809305060E94E4021CC028988B
:10010000909105069923B9F0109205060E94A60267
:100110008093000690910106891759F080E00E94B3
:10012000EE021092FF0581E0809304060E94D60241
:1001300002C010920406FF91EF91BF91AF919F9181
:100140008F917F916F915F914F913F912F910F9080
:100150000FBE0F901F9018951F920F920FB60F921F
:1001600011242F933F934F935F936F937F938F93BC
:100170009F93AF93BF93EF93FF935F9A4B9B32C0D4
:1001800080910406882349F01092B20081E00E9419
:10019000020380E00E94D60225C0809103068823D6
:1001A00041F081E080930206109203060E94F4025F
:1001B00019C0809102068823A9F08091FF058F5F06
:1001C0008093FF0590910201891728F080E00E943A
:1001D000F4021092020616BC81E00E94E40281E063
:1001E0000E94EE02FF91EF91BF91AF919F918F918D
:1001F0007F916F915F914F913F912F910F900FBE23
:100200000F901F9018951F920F920FB60F92112406
:100210002F933F934F935F936F937F938F939F930E
:10022000AF93BF93EF93FF930E94B40280E00E94CC
:10023000020380910206811103C081E080930306CE
:1002400081E00E94D602FF91EF91BF91AF919F9103
:100250008F917F916F915F914F913F912F910F906F
:100260000FBE0F901F901895CF93DF93CDB7DEB7D9
:10027000C959D1090FB6F894DEBF0FBECDBF41E01A
:1002800064EC75E0CE0101960E9417044E9B15C0E8
:1002900082EC95E00E94E6010E94E60682EC95E081
:1002A0000E94110240E063E071E082EC95E00E9460
:1002B000390282EC95E00E94EC01789440E064EC15
:1002C00075E0CE0101960E9417040BA940E064EC92
:1002D00075E0CE01C4960E941704A6961FADA6979E
:1002E00040E064EC75E0CE0189599F4F0E941704ED
:1002F000402F612FCA56DF4F88819981C659D0405F
:100300000E945403209A3D9A579AFFCF84EC95E0BF
:100310000E942F0482EC95E00E949801089582ECDF
:1003200095E00E94A80184EC95E00E9432040895B3
:1003300023E330E0FC01318320831092C5008081EB
:100340008093C400E2ECF0E08081866080830895B1
:1003500008950F931F93CF93DF93442349F1C42F44
:10036000D0E021971C161D06CCF480E0E0ECF0E014
:1003700006EC10E090819923ECF7D8019C919A301B
:1003800071F09D3061F0DB01A80FB11D9C938F5F70
:10039000282F30E02C173D076CF301C080E0841754
:1003A00010F08FEF840FFB01E80FF11D108201C0E8
:1003B00080E0DF91CF911F910F910895E0ECF0E084
:1003C00080818823ECF78091C6000895E1ECF0E08D
:1003D0008081886180830895E1ECF0E08081877EF0
:1003E00080830895E0ECF0E0808185FFFDCF8AE016
:1003F0008093C600E0ECF0E0808185FFFDCF8DE0CA
:100400008093C60008959C01E0ECF0E0908195FF98
:10041000FDCF6093C600442319F0C9010E94F20188
:100420000895CF93DF93EC0140E06BE10E9403025B
:1004300040E06BE5CE010E94030240E062E3CE01A2
:100440000E94030240E06AE4CE010E94030240E001
:100450006BE1CE010E94030240E06BE5CE010E94F9
:10046000030240E068E4CE010E940302DF91CF91D5
:100470000895FF920F931F93CF93DF938C01EB01AD
:10048000F42E6881662341F0219640E0C8010E9465
:10049000030269916111F9CFFF2019F0C8010E9490
:1004A000F201DF91CF911F910F91FF900895FF927C
:1004B0000F931F93CF93DF93CDB7DEB727970FB678
:1004C000F894DEBF0FBECDBF8C01CB01F42E4AE005
:1004D000BE016F5F7F4F0E94EC084F2DBE016F5F22
:1004E0007F4FC8010E94390227960FB6F894DEBFED
:1004F0000FBECDBFDF91CF911F910F91FF90089557
:10050000FF920F931F93CF93DF9300D000D000D0C2
:10051000CDB7DEB78C01CB01F42E4AE0BE016F5F90
:100520007F4F0E94EC084F2DBE016F5F7F4FC801C7
:100530000E94390226960FB6F894DEBF0FBECDBFDB
:10054000DF91CF911F910F91FF9008959091F80541
:10055000981730F49091F705891720F481E00895F9
:1005600080E0089582E0089580910106813031F0A5
:1005700018F0823029F005C05B9A03C05C9A01C074
:100580005D9A80910006813039F018F0823039F0A0
:1005900008C05B98409A05C05C98419A02C05D987B
:1005A000429A80910006809301060895882331F0D5
:1005B000ECE6F0E08081886080830895ECE6F0E06E
:1005C0008081877F80830895882321F085B58460AA
:1005D00085BD089585B5887F85BD0895882311F070
:1005E000E89A0895E8980895882331F0E1E8F0E06A
:1005F0008081826080830895E1E8F0E08081887FD7
:1006000080830895882331F0E1EBF0E080818760FA
:1006100080830895E1EBF0E08081887F80830895F6
:10062000219AE0E8F0E0808182608083A1E8B0E078
:100630008C9188618C938081806880838091FB0598
:100640009091FC059093890080938800809100012F
:10065000909101018436910591F01CF4C29741F00C
:100660000895883C910591F08C329140B1F0089545
:100670008FE39CE9909387008093860008958FE133
:100680009EE4909387008093860008958FE097E220
:10069000909387008093860008958AE09AE1909372
:1006A0008700809386000895909301018093000154
:1006B0006B350CF06AE5663A0CF466EA24E16203F5
:1006C000B00111246854744F7093FC056093FB05CE
:1006D0004695CB0134E1439F8019910911249093F1
:1006E000FE058093FD05249F600D711D11247093FC
:1006F000FA056093F90582E38093020110920506E2
:100700001092040610920306109202068EE4809363
:10071000F80589E88093F7058AB188638AB98BB1B7
:10072000877C8BB984B1866084B985B1897F85B9AE
:1007300087B1836087B988B18C7F88B9E9E6F0E03A
:10074000808181608083E8E6F0E080818260808340
:100750000E94100381E00E94EE02089543E350E0FE
:1007600060E570E00E9439090895CF93DF93CDB71B
:10077000DEB729E330E3FC01318320832CA93DA9B6
:1007800030AB27A72EA921AB2FA922AB0E94AE0325
:10079000DF91CF910895FC0170AB67A741110E94D2
:1007A000AE030895FC0161AB41110E94AE030895B0
:1007B000FC0162AB41110E94AE030895CF93DF9319
:1007C000EC0143E350E060E570E00E942909888174
:1007D00099818933904341F1DE0189E390E38D9360
:1007E0009D9384E1EAE6F5E001900D928A95E1F7A8
:1007F000DE01569684E1EEE7F5E001900D928A95D0
:10080000E1F7DE019A9685E0E2E9F5E001900D92CC
:100810008A95E1F782E390E098AB8FA719AA84EB61
:100820008AABCE010E94AE03DF91CF9108950F9362
:100830001F93CF93DF93EC018B01442319F0CB017D
:100840000E94DE0383E3F801DE0101900D928A9598
:10085000E1F7CE01DF91CF911F910F9108950E9492
:10086000DE03089508958436910599F01CF4C2972B
:1008700041F00895883C9105A1F08C329140C9F077
:10088000089541E064E471E082EC95E00E94390251
:10089000089541E065E571E082EC95E00E9439023F
:1008A000089541E066E671E082EC95E00E9439022D
:1008B000089541E067E771E082EC95E00E9439021B
:1008C00008951F93CF93DF93CDB7DEB7E3970FB6AD
:1008D000F894DEBF0FBECDBF82EC95E00E941102FE
:1008E00041E068E871E082EC95E00E94390282EC18
:1008F00095E00E94F20140E06FEA71E082EC95E041
:100900000E94390240E064EC75E0CE0101960E943D
:10091000170488A999A90E94330441E064EC71E0AE
:1009200082EC95E00E94390240E06BED71E082ECD0
:1009300095E00E94390282E390E00E94330440E097
:1009400061EE71E082EC95E00E94390284E690E06D
:100950000E94330440E067EE71E082EC95E00E9473
:10096000390288EC90E00E94330440E06DEE71E0C3
:1009700082EC95E00E9439028CE291E00E943304FF
:1009800082EC95E00E94F20141E063EF71E082ECBD
:1009900095E00E94390240E06DEF71E082EC95E055
:1009A0000E94390282EC95E00E94DE01182F82330A
:1009B00089F018F4813331F025C0833399F0843302
:1009C000C9F020C040E062E370E084EC95E00E9452
:1009D000CB0324C040E064E670E084EC95E00E9424
:1009E000CB031CC040E068EC70E084EC95E00E9412
:1009F000CB0314C040E06CE271E084EC95E00E940F
:100A0000CB030CC082EC95E00E94F20182EC95E0F1
:100A10000E94F201113709F05FCF09C082EC95E026
:100A20000E94F20182EC95E00E94F20155CFE3961C
:100A30000FB6F894DEBF0FBECDBFDF91CF911F91EF
:100A40000895CF92DF92EF92FF920F931F93CF936F
:100A5000DF93CDB7DEB7E7970FB6F894DEBF0FBED2
:100A6000CDBF40E064EC75E0CE0105960E9417040E
:100A7000DFA88D2D86950F2EF6EADF2EF02DD80EED
:100A800040E064EC75E0CE0105960E9417049FA932
:100A900096958AE5C82EC91AED2C0D2C000CFF087E
:100AA0000C2D0C2C000C110B82EC95E00E94110215
:100AB00041E068E072E082EC95E00E94390282EC4D
:100AC00095E00E94F20141E06DE272E082EC95E077
:100AD0000E94390241E060E772E082EC95E00E94FA
:100AE000390241E067E975E082EC95E00E94390245
:100AF00082EC95E00E94F20140E06FEB72E082EC44
:100B000095E00E94390240E064EC75E0CE01059664
:100B10000E9417046EA9062E000C770B40E082ECB1
:100B200095E00E94570241E064ED72E082EC95E0AE
:100B30000E94390240E06DED72E082EC95E00E9487
:100B4000390240E0B70182EC95E00E94570240E094
:100B50006BEF72E082EC95E00E94390240E0B80150
:100B600082EC95E00E94570241E062E073E082EC83
:100B700095E00E94390240E06CE273E082EC95E07F
:100B80000E94390244E0BE016F5F7F4F82EC95E026
:100B90000E94A9018981813751F1CE0101960E94FD
:100BA000CE088D1514F0C816DCF440E06DE373E058
:100BB00082EC95E00E94390240E0B70182EC95E0BA
:100BC0000E94570240E06BEF72E082EC95E00E94D9
:100BD000390241E0B80182EC95E00E9457020CC056
:100BE00040E0682F84EC95E00E94D20305C082ECBF
:100BF00095E00E94F20105C082EC95E00E94F201AE
:100C000053CFE7960FB6F894DEBF0FBECDBFDF918E
:100C1000CF911F910F91FF90EF90DF90CF900895AB
:100C2000FF920F931F93CF93DF93CDB7DEB7E79774
:100C30000FB6F894DEBF0FBECDBF40E064EC75E0A8
:100C4000CE0105960E9417048EA9882374F440E013
:100C500064EC75E0CE0105960E9417048EA90F2E54
:100C6000F4EBFF2EF02DF80E0BC040E064EC75E0C5
:100C7000CE0105960E9417049EA984EBF82EF91A5E
:100C80000F2D10E082EC95E00E94110241E065E535
:100C900073E082EC95E00E94390282EC95E00E94BC
:100CA000F20141E06DE773E082EC95E00E943902C9
:100CB00041E064EA73E082EC95E00E94390240E092
:100CC00067ED73E082EC95E00E94390240E0B801E4
:100CD00082EC95E00E94800241E064ED72E082ECDB
:100CE00095E00E94390241E065EF73E082EC95E007
:100CF0000E94390282EC95E00E94F20140E061E33B
:100D000074E082EC95E00E94390240E064EC75E00A
:100D1000CE0105960E9417046FA970E040E082ECB6
:100D200095E00E94800241E064ED72E082EC95E083
:100D30000E94390241E062E474E082EC95E00E9496
:100D4000390240E06BE774E082EC95E00E943902E2
:100D500044E0BE016F5F7F4F82EC95E00E94A901E5
:100D600089818137E9F0CE0101960E94CE08823058
:100D700010F0F81670F441E068E874E082EC95E059
:100D80000E94390241E0B80182EC95E00E948002A5
:100D90000CC040E0682F84EC95E00E94D80305C0A9
:100DA00082EC95E00E94F20105C082EC95E00E9481
:100DB000F20168CFE7960FB6F894DEBF0FBECDBF45
:100DC000DF91CF911F910F91FF9008956F927F92C5
:100DD0008F929F92BF92CF92DF92EF92FF921F93DA
:100DE000CF93DF93CDB7DEB7C959D1090FB6F894C9
:100DF000DEBF0FBECDBF41E064EC75E0CE010196D1
:100E00000E94170410E00F2EF7E6CF2ED12CF02D04
:100E1000CC0EDD1E82E0C80ED11C0F2EF7E6EF2EA1
:100E2000F12CF02DEC0EFD1E96E1E90EF11C0F2EBB
:100E3000F7E66F2E712CF02D6C0E7D1E8AE2680E87
:100E4000711C04C011E0813709F48EC182EC95E079
:100E50000E94110241E061EB74E082EC95E00E9497
:100E6000390282EC95E00E94F20140E069ED74E005
:100E700082EC95E00E94390240E064EC75E0CE011E
:100E800089599F4F0E941704A9966EAD7FADA9970F
:100E900041E082EC95E00E94800240E065EE74E063
:100EA00082EC95E00E94390240E064EC75E0CE01EE
:100EB00089599F4F0E94170441E0B60182EC95E0EA
:100EC0000E94390240E061EF74E082EC95E00E94FC
:100ED000390240E064EC75E0CE0189599F4F0E94D1
:100EE000170441E0B70182EC95E00E94390240E02E
:100EF0006DEF74E082EC95E00E94390240E064EC12
:100F000075E0CE0189599F4F0E94170441E0B3015B
:100F100082EC95E00E94390282EC95E00E94F20199
:100F200040E069E075E082EC95E00E94390240E023
:100F300064EC75E0CE0189599F4F0E941704CA5690
:100F4000DF4F88819981C659D0400E94330440E028
:100F500069E175E082EC95E00E94390240E064ECC2
:100F600075E0CE0189599F4F0E941704C856DF4F84
:100F70006881C859D040062E000C770B40E082EC07
:100F800095E00E94800241E064ED72E082EC95E021
:100F90000E94390240E069E275E082EC95E00E942F
:100FA000390240E064EC75E0CE0189599F4F0E9400
:100FB0001704C756DF4F6881C959D04070E040E040
:100FC00082EC95E00E94800241E064ED72E082ECE8
:100FD00095E00E94390241E069E375E082EC95E01A
:100FE0000E94390282EC95E00E94F20188A899A83B
:100FF00040E064EC75E0CE0189599F4F0E941704D0
:10100000CA56DF4F88819981C659D0408816990603
:1010100009F011E0BAA840E064EC75E0CE0189590E
:101020009F4F0E941704C856DF4F8881C859D0408F
:10103000B81291C0BBA840E064EC75E0CE018959BC
:101040009F4F0E941704C756DF4F8881C959D0406F
:10105000B81202C0112339F141E060E575E082EC7D
:1010600095E00E94390241E06AEB75E082EC95E080
:101070000E94390240E06DEF71E082EC95E00E9441
:10108000390282EC95E00E94DE018333A9F128F455
:10109000813351F1823361F1D5CE813709F464C0D7
:1010A000833771F1CFCE41E06AEB75E082EC95E0D9
:1010B0000E94390240E06DEF71E082EC95E00E9401
:1010C000390282EC95E00E94DE018333B1F028F40E
:1010D000813359F0823369F0B6CE813709F444C0C8
:1010E000833709F4B3CEAFCE11E00E946104AECED7
:1010F00011E00E942105AACE11E00E941006A6CEA2
:1011000040E064EC75E0CE01C4960E9417048DB7F0
:101110009EB7C3970FB6F8949EBF0FBE8DBFADB7F5
:10112000BEB7119683E3FE01F49601900D928A9565
:10113000E1F784EC95E00E94B5030FB6F894DEBFAA
:101140000FBECDBF40E064EC75E0CE0101960E9479
:10115000170411E07BCE40E064EC75E0CE018959C4
:101160009F4F0E94170478CFC756DF4F0FB6F894F1
:10117000DEBF0FBECDBFDF91CF911F91FF90EF90EB
:10118000DF90CF90BF909F908F907F906F90089549
:10119000EE0FFF1F0590F491E02D0994FC018827C4
:1011A0009927E89421912032E9F3293010F02E306C
:1011B000C8F32B3241F02D3239F4689404C00E94F8
:1011C000F708820F911D219120532A30C0F31EF49D
:1011D000909581959F4F0895BB274A3031F499230C
:1011E00022F4BDE2909581959F4F0C9400097AE01E
:1011F000979F902D879F802D910D11240895BB27D7
:10120000FB015527AA27880F991FAA1FA41710F0C2
:10121000A41B83955051B9F7A05DAA3308F0A95DCE
:10122000A193009779F7B111B1931192CB010C946E
:101230001909DC01FC01672F71917723E1F73297DF
:1012400004C07C916D9370836291AE17BF07C8F3A1
:101250000895DC01CB01FC01F999FECF06C0F2BD77
:10126000E1BDF89A319600B40D9241505040B8F764
:101270000895DC01A40FB51F4150504048F0CB0148
:10128000840F951F2E910E944A0941505040D0F77B
:101290000895262FF999FECF92BD81BDF89A019746
:1012A00000B4021639F01FBA20BD0FB6F894FA9AAE
:1012B000F99A0FBE089510E0C5E3D0E004C0FE0126
:1012C0000E94C8082196C633D107C9F7F894FFCF0A
:1012D000320032536574757020706572205541522A
:1012E0005420697320696E61637469766520616E4C
:1012F0006420506F7274206D756C7469706C6965D0
:10130000722069732072756E6E696E67202E2E2EA4
:101310002E2E0000616E616C6F6720202D2020351D
:1013200030487A00006469676974616C202D20314F
:101330003030487A00006469676974616C202D2040
:10134000323030487A00006469676974616C202D1E
:1013500020333030487A0000536572766F204D7527
:101360006C7469706C696572202D2D3E2043686134
:101370006E676520536572766F74797065000043FF
:10138000757272656E7420536572766F74797065CC
:101390003A20000053656C656374206E65772053B6
:1013A0006572766F747970653A00002020312000F4
:1013B0000020203220000020203320000020203494
:1013C0002000002020712045786974000053656C6E
:1013D0006563742D2D3E0000536572766F204D7548
:1013E0006C7469706C696572202D2D3E20436861B4
:1013F0006E6765207A65726F696E6700005A657264
:101400006F696E672069732074686520646576690A
:101410006174696F6E20696E20646567726565200E
:1014200066726F6D20746865206D6964646C6520F8
:10143000706F736974696F6E20282B2C2D29000042
:10144000466F722074686520616E676C65207261FA
:101450006E67652063616E206E6F742065786365CA
:101460006564203138302064656772656520746872
:1014700065207A65726F696E672063616E206F6E9A
:101480006C79206265206368616E67656400004363
:10149000757272656E7420646576696174696F6EC9
:1014A0003A200000206465677265650000456E742F
:1014B000657220696E74656765722076616C75650A
:1014C000206265747765656E20000020616E64207F
:1014D0000000206F722070726573732027712720BF
:1014E000666F72207175697420776974686F75749E
:1014F000206368616E6765733A2000004E6577204F
:10150000646576696174696F6E3A20000056616C9B
:101510007565206D757374206265206265747765EA
:10152000656E200000536572766F204D756C74698E
:10153000706C696572202D2D3E204368616E676571
:1015400020416E676C6572616E67650000416E6771
:101550006C6572616E676520696E2064656772658F
:101560006520757020746F20313830206465677293
:10157000656500004966207A65726F696E6720694B
:1015800073206E6F742030207468652072616E67FE
:1015900065206D7573742062652062656C6F7720BD
:1015A000313830212000005468657265666F7265BD
:1015B00020746865206D61782E2072616E676520E9
:1015C0006973200000546865206D696E696D756DE2
:1015D0002052616E6765206973203220616E64203D
:1015E0007468652076616C756520697320616E2072
:1015F000696E74656765722076616C75652120007F
:101600000043757272656E742072616E67653A2070
:101610000000456E746572206E65772052616E67BA
:1016200065206F72207072657373202771272066A2
:101630006F72207175697420776974686F75742092
:101640006368616E6765733A2000004E65772072AB
:10165000616E67653A20000056616C7565206D7596
:10166000737420626520616E20696E7465676572AF
:10167000206265747765656E203220616E6420009B
:1016800000536572766F506F72746D756C7469700B
:101690006C69657220436F6E666967757261746903
:1016A0006F6E204D656E75000053657269656E4EF4
:1016B000723A200000417574686F723A2020200051
:1016C00000436F6D70616E793A202000005665729C
:1016D00073696F6E3A202000003120536572766F77
:1016E000747970653A2020000032205A65726F6963
:1016F0006E673A2020202000003320416E676C6521
:1017000072616E67653A200000342052656672652A
:101710007368206D656E752D76616C75657300005C
:10172000732053617665206368616E67657320740A
:101730006F20454550524F4D00006765727420621E
:1017400069726B6E65722020202020202000625379
:101750006420656C656374726F6E6963732020200A
:101760002000312E3020007768656E20616E676C36
:10177000652072616E6765206973206C65737320E4
:101780007468616E203138302100712045786974A9
:02179000000057
:00000001FF
