:100000000C9436000C9460000C945E000C945E001E
:100010000C94AC000C945E000C945E000C940A01ED
:100020000C945E000C945E000C945E000C945E00D8
:100030000C945E000C945E000C945E000C945E00C8
:100040000C945E000C945E000C945E000C945E00B8
:100050000C945E000C945E000C945E000C945E00A8
:100060000C945E000C945E0091019A0111241FBE55
:10007000CFEFD8E0DEBFCDBF17E0A0E0B1E0EEEDFE
:10008000F4E102C005900D92A630B107D9F727E040
:10009000A6E0B7E001C01D92AC34B207E1F710E072
:1000A000C5E3D0E004C02197FE010E94CF09C4330C
:1000B000D107C9F70E943F010C94620A0C9400001A
:1000C0001F920F920FB60F9211242F933F934F93CD
:1000D0005F936F937F938F939F93AF93BF93EF93B0
:1000E000FF9380E00E94030386B54A9B08C0289ACC
:1000F00016BC81E080934B070E9403031CC0289824
:1001000090914B079923B9F010924B070E94B102CE
:100110008093460790914707891759F080E00E9425
:100120000D031092450781E080934A070E94F50273
:1001300002C010924A07FF91EF91BF91AF919F913A
:100140008F917F916F915F914F913F912F910F9080
:100150000FBE0F901F9018951F920F920FB60F921F
:1001600011242F933F934F935F936F937F938F93BC
:100170009F93AF93BF93EF93FF93339B3AC08091CC
:100180004A07882371F08BB180588BB91092B20066
:1001900010924A0781E00E94210380E00E94F5024C
:1001A00028C080914907882341F081E08093480767
:1001B000109249070E9413031CC0809148078823AE
:1001C000C1F0809145078F5F8093450790910201B0
:1001D000891740F080E00E94130388B1877088B9C6
:1001E0001092480716BC81E00E94030381E00E9440
:1001F0000D03FF91EF91BF91AF919F918F917F91EF
:100200006F915F914F913F912F910F900FBE0F9083
:100210001F9018951F920F920FB60F9211242F93D3
:100220003F934F935F936F937F938F939F93AF937E
:10023000BF93EF93FF9398B180E2892788B90E941A
:10024000BF0280E00E94210380914807811103C012
:1002500081E08093490781E00E94F502FF91EF91D0
:10026000BF91AF919F918F917F916F915F914F91CE
:100270003F912F910F900FBE0F901F901895CF9325
:10028000DF93CDB7DEB7CF59D1090FB6F894DEBFF3
:100290000FBECDBF41E068E077E0CE0101960E943D
:1002A00055044E9B15C086E097E00E94F1010E9424
:1002B000AB0786E097E00E941C0240E063E071E03B
:1002C00086E097E00E94440286E097E00E94F701F2
:1002D000789440E068E077E0CE0101960E945504F2
:1002E0000BA940E068E077E0CE01C6960E94550475
:1002F000A8961FADA89740E068E077E0CE01855949
:100300009F4F0E945504402F612FC656DF4F8881B2
:100310009981CA59D0400E947203209A3D9A579AF7
:10032000FFCF88E097E00E946D0486E097E00E948E
:10033000A301089586E097E00E94B30188E097E06A
:100340000E947004089523E330E0FC013183208390
:100350001092C50080818093C400E2ECF0E08081BF
:1003600086608083089508950F931F93CF93DF9342
:10037000442349F1C42FD0E021971C161D06CCF46C
:1003800080E0E0ECF0E006EC10E090819923ECF7DF
:10039000D8019C919A3071F09D3061F0DB01A80F7B
:1003A000B11D9C938F5F282F30E02C173D076CF315
:1003B00001C080E0841710F08FEF840FFB01E80F7D
:1003C000F11D108201C080E0DF91CF911F910F914C
:1003D0000895E0ECF0E080818823ECF78091C6007E
:1003E0000895E1ECF0E08081886180830895E1EC7C
:1003F000F0E08081877E80830895E0ECF0E08081EA
:1004000085FFFDCF8AE08093C600E0ECF0E08081BC
:1004100085FFFDCF8DE08093C60008959C01E0EC40
:10042000F0E0908195FFFDCF6093C600442319F062
:10043000C9010E94FD010895CF93DF93EC0140E0D4
:100440006BE10E940E0240E06BE5CE010E940E02BD
:1004500040E062E3CE010E940E0240E06AE4CE0179
:100460000E940E0240E06BE1CE010E940E0240E0CD
:100470006BE5CE010E940E0240E068E4CE010E94CE
:100480000E02DF91CF910895FF920F931F93CF93A8
:10049000DF938C01EB01F42E6881662341F02196F5
:1004A00040E0C8010E940E0269916111F9CFFF205E
:1004B00019F0C8010E94FD01DF91CF911F910F91AA
:1004C000FF900895FF920F931F93CF93DF93CDB7C3
:1004D000DEB727970FB6F894DEBF0FBECDBF8C01F5
:1004E000CB01F42E4AE0BE016F5F7F4F0E94F309FB
:1004F0004F2DBE016F5F7F4FC8010E9444022796B7
:100500000FB6F894DEBF0FBECDBFDF91CF911F9124
:100510000F91FF900895FF920F931F93CF93DF9356
:1005200000D000D000D0CDB7DEB78C01CB01F42EC7
:100530004AE0BE016F5F7F4F0E94F3094F2DBE015D
:100540006F5F7F4FC8010E94440226960FB6F89451
:10055000DEBF0FBECDBFDF91CF911F910F91FF90F6
:10056000089590913E07981730F490913D078917B0
:1005700020F481E0089580E0089582E008958BB131
:10058000877C8BB980914607813089F018F08230E2
:10059000D9F026C040985B9A80914707813019F0C6
:1005A000823019F01DC0419A1BC0429A19C041986F
:1005B0005C9A80914707882319F0823019F010C0A7
:1005C000409A0EC0429A0CC041985D9A80914707AC
:1005D000882319F0813019F003C0409A01C0419A74
:1005E00080914607809347070895882331F0ECE611
:1005F000F0E08081886080830895ECE6F0E08081FF
:10060000877F80830895882321F085B5846085BD28
:10061000089585B5887F85BD0895882311F0E89AEF
:100620000895E8980895882331F0E1E8F0E08081AA
:10063000826080830895E1E8F0E08081887F808394
:100640000895882331F0E1EBF0E0808184608083BD
:100650000895E1EBF0E08081887F80830895E0E8F1
:10066000F0E0808182608083A1E8B0E08C918861B5
:100670008C938081806880838091410790914207AC
:1006800090938900809388008091000190910101EE
:100690008436910591F01CF4C29741F00895883C8E
:1006A000910591F08C329140B1F008958FE39CE96F
:1006B000909387008093860008958FE19EE4909345
:1006C00087008093860008958FE097E290938700DB
:1006D0008093860008958AE09AE190938700809342
:1006E0008600089590930101809300016B350CF012
:1006F0006AE5663A0CF466EA24E16203B00111246B
:100700006854744F70934207609341074695CB013C
:1007100034E1439F801991091124909344078093F9
:100720004307249F600D711D11247093400760934F
:100730003F0782E38093020110924B0710924A0711
:1007400010924907109248078EE480933E0789E88B
:1007500080933D078AB188638AB98BB1877C8BB956
:1007600084B1866084B985B1897F85B987B183609A
:1007700087B988B18C7F88B9E9E6F0E08081816033
:100780008083E8E6F0E08081826080830E942F030E
:10079000E1EBF0E08081826080838CEB8093B3009A
:1007A000E0E7F0E080818260808381E00E940D03B9
:1007B000089545E350E060E570E00E94400A089526
:1007C000CF93DF93CDB7DEB7FC0189E390E391834C
:1007D00080838CA99DA990AB87A78EA981AB8FA997
:1007E00082AB88AD99AD94AB83ABCF010E94D903A6
:1007F000DF91CF910895FC0170AB67A741110E9472
:10080000D9030895FC0161AB41110E94D9030895F9
:10081000FC0162AB41110E94D90308956536710550
:1008200030F0FC0174AB63AB41110E94D903089511
:10083000CF93DF93EC0145E350E060E570E00E9468
:10084000300A888199818933904361F1DE0189E31F
:1008500090E38D939D9384E1EFEAF6E001900D9291
:100860008A95E1F7DE01569684E1E3ECF6E001902B
:100870000D928A95E1F7DE019A9685E0E7EDF6E0C4
:1008800001900D928A95E1F782E390E098AB8FA7F3
:1008900019AA84EB8AAB84EF91E09CAB8BABCE01C1
:1008A0000E94D903DF91CF9108950F931F93CF93A7
:1008B000DF93EC018B01442319F0CB010E94180453
:1008C00085E3F801DE0101900D928A95E1F7CE01F2
:1008D000DF91CF911F910F9108950E941804089500
:1008E00008958436910599F01CF4C29741F008955B
:1008F000883C9105A1F08C329140C9F0089541E007
:1009000064E471E086E097E00E944402089541E0CB
:1009100065E571E086E097E00E944402089541E0B9
:1009200066E671E086E097E00E944402089541E0A7
:1009300067E771E086E097E00E94440208951F9304
:10094000CF93DF93CDB7DEB7E5970FB6F894DEBF50
:100950000FBECDBF86E097E00E941C0241E068E830
:1009600071E086E097E00E94440286E097E00E94F2
:10097000FD0140E06FEA71E086E097E00E944402EA
:1009800040E068E077E0CE0101960E94550488A916
:1009900099A90E94710441E064EC71E086E097E05F
:1009A0000E94440240E06BED71E086E097E00E9417
:1009B000440282E390E00E94710440E061EE71E045
:1009C00086E097E00E94440284E690E00E94710471
:1009D00040E067EE71E086E097E00E94440288EC18
:1009E00090E00E94710440E06DEE71E086E097E0D7
:1009F0000E9444028CE291E00E94710486E097E03C
:100A00000E94FD0141E063EF71E086E097E00E9403
:100A1000440240E06DEF71E086E097E00E944402FE
:100A200086E097E00E94E901182F823389F018F4DC
:100A3000813331F025C0833399F08433C9F020C06D
:100A400040E062E370E088E097E00E94FB0324C08E
:100A500040E064E670E088E097E00E94FB031CC081
:100A600040E068EC70E088E097E00E94FB0314C06F
:100A700040E06CE271E088E097E00E94FB030CC06C
:100A800086E097E00E94FD0186E097E00E94FD016C
:100A9000113709F05FCF09C086E097E00E94FD01A1
:100AA00086E097E00E94FD0155CFE5960FB6F894D9
:100AB000DEBF0FBECDBFDF91CF911F910895CF92C2
:100AC000DF92EF92FF920F931F93CF93DF93CDB7F7
:100AD000DEB7E9970FB6F894DEBF0FBECDBF40E09A
:100AE00068E077E0CE0105960E945504DFA88D2DC1
:100AF00086950F2EF6EADF2EF02DD80E40E068E046
:100B000077E0CE0105960E9455049FA996958AE547
:100B1000C82EC91AED2C0D2C000CFF080C2D0C2C26
:100B2000000C110B86E097E00E941C0241E068E097
:100B300072E086E097E00E94440286E097E00E941F
:100B4000FD0141E06DE272E086E097E00E94440220
:100B500041E060E772E086E097E00E94440241E0F5
:100B60006CED76E086E097E00E94440286E097E034
:100B70000E94FD0140E06FEB72E086E097E00E948A
:100B8000440240E068E077E0CE0105960E945504FB
:100B90006EA9062E000C770B40E086E097E00E94DD
:100BA000620241E064ED72E086E097E00E94440258
:100BB00040E06DED72E086E097E00E94440240E084
:100BC000B70186E097E00E94620240E06BEF72E0BE
:100BD00086E097E00E94440240E0B80186E097E09A
:100BE0000E94620241E062E073E086E097E00E94CA
:100BF000440240E06CE273E086E097E00E94440229
:100C000044E0BE016F5F7F4F86E097E00E94B40131
:100C10008981813751F1CE0101960E94D5098D1548
:100C200014F0C816DCF440E06DE373E086E097E072
:100C30000E94440240E0B70186E097E00E94620211
:100C400040E06BEF72E086E097E00E94440241E0F2
:100C5000B80186E097E00E9462020CC040E0682F75
:100C600088E097E00E94020405C086E097E00E94B9
:100C7000FD0105C086E097E00E94FD0153CFE99693
:100C80000FB6F894DEBF0FBECDBFDF91CF911F919D
:100C90000F91FF90EF90DF90CF900895FF920F9308
:100CA0001F93CF93DF93CDB7DEB7E9970FB6F894D4
:100CB000DEBF0FBECDBF40E068E077E0CE01059615
:100CC0000E9455048EA9882374F440E068E077E020
:100CD000CE0105960E9455048EA90F2EF4EBFF2E2F
:100CE000F02DF80E0BC040E068E077E0CE010596ED
:100CF0000E9455049EA984EBF82EF91A0F2D10E0DE
:100D000086E097E00E941C0241E065E573E086E022
:100D100097E00E94440286E097E00E94FD0141E0D6
:100D20006DE773E086E097E00E94440241E064EAE8
:100D300073E086E097E00E94440240E067ED73E0D4
:100D400086E097E00E94440240E0B80186E097E028
:100D50000E948B0241E064ED72E086E097E00E9421
:100D6000440241E065EF73E086E097E00E944402B0
:100D700086E097E00E94FD0140E061E374E086E0D8
:100D800097E00E94440240E068E077E0CE010596DB
:100D90000E9455046FA970E040E086E097E00E9451
:100DA0008B0241E064ED72E086E097E00E9444022D
:100DB00041E062E474E086E097E00E94440240E093
:100DC0006BE774E086E097E00E94440244E0BE01D5
:100DD0006F5F7F4F86E097E00E94B4018981813781
:100DE000E9F0CE0101960E94D509823010F0F81684
:100DF00070F441E068E874E086E097E00E94440205
:100E000041E0B80186E097E00E948B020CC040E010
:100E1000682F88E097E00E94080405C086E097E00C
:100E20000E94FD0105C086E097E00E94FD0168CFA9
:100E3000E9960FB6F894DEBF0FBECDBFDF91CF911C
:100E40001F910F91FF900895CF93DF93CDB7DEB739
:100E5000EB970FB6F894DEBF0FBECDBF86E097E0EC
:100E60000E941C0241E061EB74E086E097E00E9482
:100E7000440286E097E00E94FD0141E068ED74E0E5
:100E800086E097E00E94440241E065E175E086E07B
:100E900097E00E94440286E097E00E94FD0140E056
:100EA00067E575E086E097E00E94440240E068E074
:100EB00077E0CE0107960E9455046AAD7BAD40E015
:100EC00086E097E00E948B0241E068E675E086E0EC
:100ED00097E00E94440241E06CE675E086E097E00E
:100EE0000E94440240E069EA75E086E097E00E94D3
:100EF000440246E0BE016F5F7F4F86E097E00E94AC
:100F0000B40189818137D1F0CE0101960E94D509C3
:100F10008436910540F441E066EB75E086E097E0A9
:100F20000E94440206C040E0BC0188E097E00E94B5
:100F30000E0486E097E00E94FD0194CF86E097E0E2
:100F40000E94FD01EB960FB6F894DEBF0FBECDBF39
:100F5000DF91CF9108954F925F927F928F929F92EF
:100F6000AF92BF92CF92DF92EF92FF921F93CF93F7
:100F7000DF93CDB7DEB7CF59D1090FB6F894DEBFF6
:100F80000FBECDBF41E068E077E0CE0101960E9440
:100F900055040F2EFBE6CF2ED12CF02DCC0EDD1EEE
:100FA00082E0C80ED11C0F2EFBE6EF2EF12CF02DA7
:100FB000EC0EFD1E96E1E90EF11C0F2EFBE64F2E06
:100FC000512CF02D4C0E5D1E8AE2480E511C03C0C0
:100FD000813709F4CEC186E097E00E941C0241E00F
:100FE00066EE75E086E097E00E94440286E097E0B6
:100FF0000E94FD0140E06EE076E086E097E00E940E
:10100000440240E068E077E0CE0185599F4F0E949E
:101010005504AD966EAD7FADAD9741E086E097E0AB
:101020000E948B0240E06AE176E086E097E00E9451
:10103000440240E068E077E0CE0185599F4F0E946E
:10104000550441E0B60186E097E00E94440240E08A
:1010500066E276E086E097E00E94440240E068E0C5
:1010600077E0CE0185599F4F0E94550441E0B701BA
:1010700086E097E00E94440240E062E376E086E08A
:1010800097E00E94440240E068E077E0CE01855995
:101090009F4F0E94550441E0B20186E097E00E9414
:1010A000440286E097E00E94FD0140E06EE376E0B6
:1010B00086E097E00E94440240E068E077E0CE01DD
:1010C00085599F4F0E945504C656DF4F88819981EC
:1010D000CA59D0400E94710440E06EE476E086E098
:1010E00097E00E94440240E068E077E0CE01855935
:1010F0009F4F0E945504C456DF4F6881CC59D040A1
:10110000062E000C770B40E086E097E00E948B02F1
:1011100041E064ED72E086E097E00E94440240E026
:101120006EE576E086E097E00E94440240E068E0E9
:1011300077E0CE0185599F4F0E945504C356DF4F7B
:101140006881CD59D04070E040E086E097E00E9491
:101150008B0241E064ED72E086E097E00E94440279
:1011600040E06EE676E086E097E00E94440240E0D0
:1011700068E077E0CE0185599F4F0E945504C25622
:10118000DF4F68817981CE59D04040E086E097E01A
:101190000E948B0241E068E675E086E097E00E94DD
:1011A000440286E097E00E94FD0141E06EE776E0B0
:1011B00086E097E00E94440286E097E00E94FD01ED
:1011C00088A899A840E068E077E0CE0185599F4F54
:1011D0000E945504C656DF4FA880B980CA59D04036
:1011E0007AA840E068E077E0CE0185599F4F0E94E1
:1011F0005504C456DF4F8881CC59D040781206C0C0
:1012000011E08A149B0419F410E001C011E0BBA89E
:1012100040E068E077E0CE0185599F4F0E94550479
:10122000C356DF4F8881CD59D040B81299C0ACA8C1
:10123000BDA840E068E077E0CE0185599F4F0E944D
:101240005504C256DF4F88819981CE59D040A816E7
:10125000B90611F4112351F141E065E976E086E029
:1012600097E00E94440241E06FEF76E086E097E06D
:101270000E94440240E06DEF71E086E097E00E943A
:10128000440286E097E00E94E9018333C9F128F423
:10129000813381F1823389F19BCE813709F469C0B2
:1012A0008337A1F1843309F093CE2DC041E06FEF75
:1012B00076E086E097E00E94440240E06DEF71E046
:1012C00086E097E00E94440286E097E00E94E901F0
:1012D0008333B1F028F4813369F0823371F078CE32
:1012E000813709F446C0833709F475CE843309F099
:1012F0006FCE09C00E949F046ECE0E945F056BCE28
:101300000E944E0668CE0E94240765CE40E068E049
:1013100077E0CE01C6960E9455048DB79EB7C5975B
:101320000FB6F8949EBF0FBE8DBFADB7BEB7119676
:1013300085E3FE01F69601900D928A95E1F788E02B
:1013400097E00E94E0030FB6F894DEBF0FBECDBF5A
:1013500040E068E077E0CE0101960E9455043BCE64
:1013600040E068E077E0CE0185599F4F0E94550428
:1013700073CFC156DF4F0FB6F894DEBF0FBECDBF9F
:10138000DF91CF911F91FF90EF90DF90CF90BF90B2
:10139000AF909F908F907F905F904F900895EE0F49
:1013A000FF1F0590F491E02D0994FC0188279927EF
:1013B000E89421912032E9F3293010F02E30C8F35F
:1013C0002B3241F02D3239F4689404C00E94FE099A
:1013D000820F911D219120532A30C0F31EF4909565
:1013E00081959F4F0895BB274A3031F4992322F409
:1013F000BDE2909581959F4F0C94070A7AE0979FE4
:10140000902D879F802D910D11240895BB27FB01FE
:101410005527AA27880F991FAA1FA41710F0A41BED
:1014200083955051B9F7A05DAA3308F0A95DA19347
:10143000009779F7B111B1931192CB010C94200A66
:10144000DC01FC01672F71917723E1F7329704C02B
:101450007C916D9370836291AE17BF07C8F30895B6
:10146000DC01CB01FC01F999FECF06C0F2BDE1BD64
:10147000F89A319600B40D9241505040B8F7089553
:10148000DC01A40FB51F4150504048F0CB01840F40
:10149000951F2E910E94510A41505040D0F7089557
:1014A000262FF999FECF92BD81BDF89A019700B41D
:1014B000021639F01FBA20BD0FB6F894FA9AF99ABD
:1014C0000FBE089510E0C5E3D0E004C0FE010E9405
:0E14D000CF092196C633D107C9F7F894FFCF94
:1014DE00320032536574757020706572205541521A
:1014EE005420697320696E61637469766520616E3C
:1014FE006420506F7274206D756C7469706C6965C0
:10150E00722069732072756E6E696E67202E2E2E94
:10151E002E2E0000616E616C6F6720202D2020350D
:10152E0030487A00006469676974616C202D20313F
:10153E003030487A00006469676974616C202D2030
:10154E00323030487A00006469676974616C202D0E
:10155E0020333030487A0000536572766F204D7517
:10156E006C7469706C696572202D2D3E2043686124
:10157E006E676520536572766F74797065000043EF
:10158E00757272656E7420536572766F74797065BC
:10159E003A20000053656C656374206E65772053A6
:1015AE006572766F747970653A00002020312000E4
:1015BE000020203220000020203320000020203484
:1015CE002000002020712045786974000053656C5E
:1015DE006563742D2D3E0000536572766F204D7538
:1015EE006C7469706C696572202D2D3E20436861A4
:1015FE006E6765207A65726F696E6700005A657254
:10160E006F696E67206973207468652064657669FA
:10161E006174696F6E20696E2064656772656520FE
:10162E0066726F6D20746865206D6964646C6520E8
:10163E00706F736974696F6E20282B2C2D29000032
:10164E00466F722074686520616E676C65207261EA
:10165E006E67652063616E206E6F742065786365BA
:10166E006564203138302064656772656520746862
:10167E0065207A65726F696E672063616E206F6E8A
:10168E006C79206265206368616E67656400004353
:10169E00757272656E7420646576696174696F6EB9
:1016AE003A200000206465677265650000456E741F
:1016BE00657220696E74656765722076616C7565FA
:1016CE00206265747765656E20000020616E64206F
:1016DE000000206F722070726573732027712720AF
:1016EE00666F72207175697420776974686F75748E
:1016FE00206368616E6765733A2000004E6577203F
:10170E00646576696174696F6E3A20000056616C8B
:10171E007565206D757374206265206265747765DA
:10172E00656E200000536572766F204D756C74697E
:10173E00706C696572202D2D3E204368616E676561
:10174E0020416E676C6572616E67650000416E6761
:10175E006C6572616E676520696E2064656772657F
:10176E006520757020746F20313830206465677283
:10177E00656500004966207A65726F696E6720693B
:10178E0073206E6F742030207468652072616E67EE
:10179E0065206D7573742062652062656C6F7720AD
:1017AE00313830212000005468657265666F7265AD
:1017BE0020746865206D61782E2072616E676520D9
:1017CE006973200000546865206D696E696D756DD2
:1017DE002052616E6765206973203220616E64202D
:1017EE007468652076616C756520697320616E2062
:1017FE00696E74656765722076616C75652120006F
:10180E000043757272656E742072616E67653A2060
:10181E000000456E746572206E65772052616E67AA
:10182E0065206F7220707265737320277127206692
:10183E006F72207175697420776974686F75742082
:10184E006368616E6765733A2000004E657720729B
:10185E00616E67653A20000056616C7565206D7586
:10186E00737420626520616E20696E74656765729F
:10187E00206265747765656E203220616E6420008B
:10188E0000536572766F204D756C7469706C696566
:10189E0072202D2D3E204368616E67652050574D96
:1018AE002064656C6179000050574D2064656C6151
:1018BE00792073657473207468652074696D652072
:1018CE005B6D735D207468652067656E657261740B
:1018DE0065642050574D206C61737473206166747B
:1018EE0065722000006368616E67696E67207468B8
:1018FE006520536572766F206F7574707574205005
:10190E004F52542E20546865206D696E2056616CBE
:10191E0075652069732031303020666F722031304A
:10192E00306D732120000043757272656E742064F1
:10193E00656C61793A2000006D730000456E746528
:10194E0072206E65772050574D2064656C6179204A
:10195E006F722070726573732027712720666F7205
:10196E00207175697420776974686F757420636867
:10197E00616E676573212000004E65772064656C8B
:10198E0061793A20000056616C7565206D7573742F
:10199E0020626520616E20696E74656765722062D3
:1019AE0065747765656E2031303020616E64203647
:1019BE00353533350000536572766F506F72746D26
:1019CE00756C7469706C69657220436F6E666967B9
:1019DE0075726174696F6E204D656E75000053658A
:1019EE007269656E4E723A200000417574686F72AE
:1019FE003A2020200000436F6D70616E793A2020EE
:101A0E00000056657273696F6E3A20200000312017
:101A1E00536572766F747970653A2020000032201B
:101A2E005A65726F696E673A2020202000003320BD
:101A3E00416E676C6572616E67653A2000003420F6
:101A4E0050574D2064656C61793A20200000352096
:101A5E0052656672657368206D656E752D76616C64
:101A6E007565730000732053617665206368616E3F
:101A7E0067657320746F20454550524F4D000067C7
:101A8E00657274206269726B6E6572202020202050
:101A9E0020200062536420656C656374726F6E69FA
:101AAE0063732020202000312E3020007768656E71
:101ABE0020616E676C652072616E676520697320A8
:101ACE006C657373207468616E203138302100713B
:061ADE0020457869740048
:00000001FF
