:100000000C9436000C9460000C945E000C945E001E
:100010000C94B6000C945E000C945E000C941601D7
:100020000C945E000C945E000C945E000C945E00D8
:100030000C945E000C945E000C945E000C945E00C8
:100040000C945E000C945E000C945E000C945E00B8
:100050000C945E000C945E000C945E000C945E00A8
:100060000C945E000C945E008B02940211241FBE5F
:10007000CFEFD8E0DEBFCDBF17E0A0E0B1E0E2E611
:10008000F6E102C005900D92AE36B107D9F727E030
:10009000AEE6B7E001C01D92A23BB207E1F710E067
:1000A000C5E3D0E004C02197FE010E94910AC43349
:1000B000D107C9F70E9450010C94240B0C94000046
:1000C0001F920F920FB60F9211242F933F934F93CD
:1000D0005F936F937F938F939F93AF93BF93EF93B0
:1000E000FF9380E00E94FD0386B54A9B0BC0289ACF
:1000F00016BC81E090E09093B0078093AF070E9418
:10010000FD0323C028982091AF073091B00721301C
:100110003105D9F40E94AB038093AE079091B107EB
:10012000891779F080E00E9407041092AD0782E001
:1001300090E09093B0078093AF0781E00E94EF03B7
:1001400004C01092B0071092AF07FF91EF91BF91DA
:10015000AF919F918F917F916F915F914F913F915F
:100160002F910F900FBE0F901F9018951F920F9216
:100170000FB60F9211242F933F934F935F936F937A
:100180007F938F939F93AF93BF93EF93FF93339B93
:100190003CC08091AF079091B0078230910561F427
:1001A0008BB180588BB91092B20081E00E941E047E
:1001B00080E00E94EF0329C08330910551F484E070
:1001C00090E09093B0078093AF0781E00E940D0408
:1001D0001CC00497D1F48091AD078F5F8093AD0769
:1001E00090910201891750F080E00E940D0488B1BF
:1001F000877088B91092B0071092AF0716BC81E0E3
:100200000E94FD0381E00E940704FF91EF91BF91DE
:10021000AF919F918F917F916F915F914F913F919E
:100220002F910F900FBE0F901F9018951F920F9255
:100230000FB60F9211242F933F934F935F936F93B9
:100240007F938F939F93AF93BF93EF93FF9398B157
:1002500080E2892788B90E94B90380E00E941E04C9
:100260008091AF079091B007049731F083E090E060
:100270009093B0078093AF0781E00E94EF03FF9156
:10028000EF91BF91AF919F918F917F916F915F910E
:100290004F913F912F910F900FBE0F901F90189587
:1002A000CF93DF93CDB7DEB7C45DD1090FB6F89415
:1002B000DEBF0FBECDBF41E060E777E0CE01019623
:1002C0000E94D8044E9B15C08EE697E00E94EB0278
:1002D0000E946D088EE697E00E94160340E063E0FE
:1002E00071E08EE697E00E943E038EE697E00E9462
:1002F000F102789440E060E777E0CE0101960E9439
:10030000D804ECA8FDA840E060E777E0CE01C696EF
:100310000E94D804A9960FADA99740E060E777E066
:10032000CE0185599F4F0E94D804C456DF4F1881D3
:10033000CC59D04040E060E777E0CE0180569F4F37
:100340000E94D8049701402F612FC153DF4F88814D
:100350009981CF5CD0400E946F048EE697E00E94A6
:10036000EB028EE697E00E94160341E064E471E040
:100370008EE697E00E943E0340E06CE571E08EE679
:1003800097E00E943E0340E060E777E0CE010196EF
:100390000E94D80469817A8141E08EE697E00E944C
:1003A000850340E068E671E08EE697E00E943E0338
:1003B00040E060E777E0CE0101960E94D80441E07A
:1003C000BE016D5F7F4F8EE697E00E943E0340E0E6
:1003D00064E771E08EE697E00E943E0340E060E74C
:1003E00077E0CE0101960E94D80441E0BE01695E2B
:1003F0007F4F8EE697E00E943E0340E060E871E0A8
:100400008EE697E00E943E0340E060E777E0CE0191
:1004100001960E94D80441E0BE01655D7F4F8EE6E3
:1004200097E00E943E038EE697E00E94F70240E0CC
:100430006CE871E08EE697E00E943E0340E060E7E2
:1004400077E0CE0101960E94D80488A999A90E945C
:10045000330540E06CE971E08EE697E00E943E03D0
:1004600040E060E777E0CE0101960E94D8046AA9D7
:10047000062E000C770B40E08EE697E00E94850385
:1004800041E06CEA71E08EE697E00E943E0340E0B6
:1004900065EB71E08EE697E00E943E0340E060E786
:1004A00077E0CE0101960E94D8046BA970E040E08D
:1004B0008EE697E00E94850341E06CEA71E08EE6EB
:1004C00097E00E943E0340E065EC71E08EE697E025
:1004D0000E943E0340E060E777E0CE0101960E9473
:1004E000D8046CA97DA940E08EE697E00E948503C0
:1004F00041E065ED71E08EE697E00E943E038EE6F6
:1005000097E00E94F7028EE697E00E94F102209A9F
:100510003D9A579AFFCF80E797E00E94F0048EE65D
:1005200097E00E949D0208958EE697E00E94AD023A
:1005300080E797E00E943205089523E330E0FC0154
:10054000318320831092C50080818093C400E2EC47
:10055000F0E0808186608083089508950F931F9353
:10056000CF93DF93442349F1C42FD0E021971C1689
:100570001D06CCF480E0E0ECF0E006EC10E09081A9
:100580009923ECF7D8019C919A3071F09D3061F07D
:10059000DB01A80FB11D9C938F5F282F30E02C1733
:1005A0003D076CF301C080E0841710F08FEF840FDB
:1005B000FB01E80FF11D108201C080E0DF91CF91B7
:1005C0001F910F910895E0ECF0E080818823ECF713
:1005D0008091C6000895E1ECF0E08081886180831D
:1005E0000895E1ECF0E08081877E80830895E0EC5F
:1005F000F0E0808185FFFDCF8AE08093C600E0ECCB
:10060000F0E0808185FFFDCF8DE08093C6000895E6
:100610009C01E0ECF0E0908195FFFDCF6093C60077
:10062000442319F0C9010E94F7020895CF93DF9384
:10063000EC0140E06BE10E94080340E06BE5CE0175
:100640000E94080340E062E3CE010E94080340E0FC
:100650006AE4CE010E94080340E06BE1CE010E94F3
:10066000080340E06BE5CE010E94080340E068E427
:10067000CE010E940803DF91CF910895FF920F935E
:100680001F93CF93DF938C01EB01F42E68816623D7
:1006900041F0219640E0C8010E9408036991611170
:1006A000F9CFFF2019F0C8010E94F702DF91CF9126
:1006B0001F910F91FF900895FF920F931F93CF9377
:1006C000DF93CDB7DEB727970FB6F894DEBF0FBE26
:1006D000CDBF8C01CB01F42E4AE0BE016F5F7F4F8E
:1006E0000E94B50A4F2DBE016F5F7F4FC8010E9467
:1006F0003E0327960FB6F894DEBF0FBECDBFDF9145
:10070000CF911F910F91FF900895FF920F931F9328
:10071000CF93DF9300D000D000D0CDB7DEB78C01EF
:10072000CB01F42E4AE0BE016F5F7F4F0E94B50AF5
:100730004F2DBE016F5F7F4FC8010E943E0326967A
:100740000FB6F894DEBF0FBECDBFDF91CF911F91E2
:100750000F91FF9008959091A607981730F490910B
:10076000A507891720F481E0089580E0089582E0CC
:1007700008958BB1877C8BB98091AE07813089F069
:1007800018F08230D9F026C040985B9A8091B1076A
:10079000813019F0823019F01DC0419A1BC0429A75
:1007A00019C041985C9A8091B107882319F0823072
:1007B00019F010C0409A0EC0429A0CC042985D9A3F
:1007C0008091B107882319F0813019F003C0409A55
:1007D00001C0419A8091AE078093B10708958823A4
:1007E00031F0ECE6F0E08081886080830895ECE6EB
:1007F000F0E08081877F80830895882321F085B58C
:10080000846085BD089585B5887F85BD089588235A
:1008100011F0E89A0895E898089598B1987F98B9EA
:10082000882331F0E1E8F0E08081826080830895E0
:10083000E1E8F0E08081887F80830895882331F0AB
:10084000E1EBF0E08081846080830895E1EBF0E0EB
:100850008081887F80830895E0E8F0E08081826075
:100860008083A1E8B0E08C9188618C93808180685E
:1008700080838091A9079091AA0790938900809323
:10088000880080910001909101018436910591F0DA
:100890001CF4C29741F00895883C910591F08C3288
:1008A0009140B1F008958FE39CE990938700809385
:1008B000860008958FE19EE49093870080938600E0
:1008C00008958FE097E290938700809386000895C3
:1008D0008AE09AE190938700809386000895909330
:1008E0000101809300011092B0071092AF076B35A1
:1008F0000CF06AE5663A0CF466EA34E16303B00191
:1009000011246854744F7093AA076093A907469501
:10091000CB0154E1459F8019910911249093AC07B4
:100920008093AB07349F600D711D11247093A8074D
:100930006093A707209302018EE48093A60789E8BD
:100940008093A5078AB188638AB98BB1877C8BB9FC
:1009500084B1866084B985B1897F85B987B18360A8
:1009600087B988B18C7F88B9E9E6F0E08081816041
:100970008083E8E6F0E08081826080830E942C041E
:10098000E1EBF0E08081826080838CEB8093B300A8
:10099000E0E7F0E080818260808381E00E940704CC
:1009A000089545E350E060E570E00E94F20A089582
:1009B0000F931F93CF93DF93EC018B01442319F026
:1009C000CB010E94D10485E3F801DE0101900D9274
:1009D0008A95E1F7CE01DF91CF911F910F91089594
:1009E0000E94D104089545E350E060E570E00E9464
:1009F000020B0895CF93DF93CDB7DEB7FC0189E3F7
:100A000090E3918380838CA99DA990AB87A78EA941
:100A100081AB8FA982AB88AD99AD94AB83ABCF018D
:100A20000E94F304DF91CF910895FC0170AB67A79A
:100A300041110E94F3040895FC0161AB41110E9431
:100A4000F3040895FC0162AB41110E94F304089580
:100A50006536710530F0FC0174AB63AB41110E9447
:100A6000F304089508958436910599F01CF4C29713
:100A700041F00895883C9105A1F08C329140C9F075
:100A8000089541E069ED71E08EE697E00E943E0333
:100A9000089541E06AEE71E08EE697E00E943E0321
:100AA000089541E06BEF71E08EE697E00E943E030F
:100AB000089541E06CE072E08EE697E00E943E030C
:100AC00008951F93CF93DF93CDB7DEB7E5970FB6A9
:100AD000F894DEBF0FBECDBF8EE697E00E941603EE
:100AE00041E06DE172E08EE697E00E943E038EE603
:100AF00097E00E94F70240E064E472E08EE697E03F
:100B00000E943E0340E060E777E0CE0101960E943C
:100B1000D80488A999A90E94330541E069E572E0EB
:100B20008EE697E00E943E0340E060E772E08EE6CA
:100B300097E00E943E0382E390E00E94330540E08C
:100B400066E772E08EE697E00E943E0384E690E05E
:100B50000E94330540E06CE772E08EE697E00E9469
:100B60003E0388EC90E00E94330540E062E872E0CA
:100B70008EE697E00E943E038CE291E00E943305EE
:100B80008EE697E00E94F70241E068E872E08EE6A8
:100B900097E00E943E0340E062E972E08EE697E053
:100BA0000E943E038EE697E00E94E302182F8233F4
:100BB00089F018F4813331F025C0833399F0843300
:100BC000C9F020C040E062E370E080E797E00E9457
:100BD000150524C040E064E670E080E797E00E94DD
:100BE00015051CC040E068EC70E080E797E00E94CB
:100BF000150514C040E06CE271E080E797E00E94C8
:100C000015050CC08EE697E00E94F7028EE697E08D
:100C10000E94F702113709F05FCF09C08EE697E016
:100C20000E94F7028EE697E00E94F70255CFE59604
:100C30000FB6F894DEBF0FBECDBFDF91CF911F91ED
:100C40000895CF92DF92EF92FF920F931F93CF936D
:100C5000DF93CDB7DEB7E9970FB6F894DEBF0FBECE
:100C6000CDBF40E060E777E0CE0105960E94D80452
:100C7000DFA88D2D86950F2EF6EADF2EF02DD80EEB
:100C800040E060E777E0CE0105960E94D8049FA976
:100C900096958AE5C82EC91AED2C0D2C000CFF087C
:100CA0000C2D0C2C000C110B8EE697E00E94160305
:100CB00041E06DE972E08EE697E00E943E038EE629
:100CC00097E00E94F70241E062EC72E08EE697E066
:100CD0000E943E0341E065E073E08EE697E00E94EB
:100CE0003E0341E064E477E08EE697E00E943E0335
:100CF0008EE697E00E94F70240E064E573E08EE63E
:100D000097E00E943E0340E060E777E0CE01059661
:100D10000E94D8046EA9062E000C770B40E08EE6E8
:100D200097E00E945C0341E069E673E08EE697E09D
:100D30000E943E0340E062E773E08EE697E00E9487
:100D40003E0340E0B7018EE697E00E945C0340E07E
:100D500060E973E08EE697E00E943E0340E0B80150
:100D60008EE697E00E945C0341E067E973E08EE65F
:100D700097E00E943E0340E061EC73E08EE697E06E
:100D80000E943E0344E0BE016F5F7F4F8EE697E016
:100D90000E94AE028981813751F1CE0101960E94F5
:100DA000970A8D1514F0C816DCF440E062ED73E08C
:100DB0008EE697E00E943E0340E0B7018EE697E0A2
:100DC0000E945C0340E060E973E08EE697E00E94D9
:100DD0003E0341E0B8018EE697E00E945C030CC040
:100DE00040E0682F80E797E00E941C0505C08EE672
:100DF00097E00E94F70205C08EE697E00E94F70296
:100E000053CFE9960FB6F894DEBF0FBECDBFDF918A
:100E1000CF911F910F91FF90EF90DF90CF900895A9
:100E2000FF920F931F93CF93DF93CDB7DEB7E99770
:100E30000FB6F894DEBF0FBECDBF40E060E777E0AD
:100E4000CE0105960E94D8048EA9882374F440E050
:100E500060E777E0CE0105960E94D8048EA90F2E98
:100E6000F4EBFF2EF02DF80E0BC040E060E777E0CA
:100E7000CE0105960E94D8049EA984EBF82EF91A9B
:100E80000F2D10E08EE697E00E94160341E06AEE17
:100E900073E08EE697E00E943E038EE697E00E94A4
:100EA000F70241E062E174E08EE697E00E943E03C3
:100EB00041E069E374E08EE697E00E943E0340E083
:100EC0006CE674E08EE697E00E943E0340E0B801D5
:100ED0008EE697E00E94850341E069E673E08EE6C6
:100EE00097E00E943E0341E06AE874E08EE697E0F6
:100EF0000E943E038EE697E00E94F70240E066EC17
:100F000074E08EE697E00E943E0340E060E777E001
:100F1000CE0105960E94D8046FA970E040E08EE6ED
:100F200097E00E94850341E069E673E08EE697E072
:100F30000E943E0341E067ED74E08EE697E00E9478
:100F40003E0340E060E175E08EE697E00E943E03DC
:100F500044E0BE016F5F7F4F8EE697E00E94AE02D5
:100F600089818137E9F0CE0101960E94970A82308B
:100F700010F0F81670F441E06DE175E08EE697E050
:100F80000E943E0341E0B8018EE697E00E9485038F
:100F90000CC040E0682F80E797E00E94220505C062
:100FA0008EE697E00E94F70205C08EE697E00E9469
:100FB000F70268CFE9960FB6F894DEBF0FBECDBF3B
:100FC000DF91CF911F910F91FF900895CF93DF9301
:100FD000CDB7DEB7EB970FB6F894DEBF0FBECDBF2F
:100FE0008EE697E00E94160341E066E475E08EE627
:100FF00097E00E943E038EE697E00E94F70241E0F0
:101000006DE675E08EE697E00E943E0341E06AEAF5
:1010100075E08EE697E00E943E038EE697E00E9420
:10102000F70240E06CEE75E08EE697E00E943E032A
:1010300040E060E777E0CE0107960E94D8046AADF1
:101040007BAD40E08EE697E00E94850341E06DEFC6
:1010500075E08EE697E00E943E0341E061E076E0B5
:101060008EE697E00E943E0340E06EE376E08EE677
:1010700097E00E943E0346E0BE016F5F7F4F8EE621
:1010800097E00E94AE0289818137D1F0CE010196AE
:101090000E94970A8436910540F441E06BE476E0C3
:1010A0008EE697E00E943E0306C040E0BC0180E768
:1010B00097E00E9428058EE697E00E94F70294CF01
:1010C0008EE697E00E94F702EB960FB6F894DEBF2B
:1010D0000FBECDBFDF91CF9108954F925F927F9267
:1010E0008F929F92AF92BF92CF92DF92EF92FF9238
:1010F0001F93CF93DF93CDB7DEB7CF59D1090FB68A
:10110000F894DEBF0FBECDBF41E060E777E0CE01CF
:1011100001960E94D8040F2EFBE6CF2ED12CF02D85
:10112000CC0EDD1E82E0C80ED11C0F2EFBE6EF2E8A
:10113000F12CF02DEC0EFD1E96E1E90EF11C0F2EA8
:10114000FBE64F2E512CF02D4C0E5D1E8AE2480E10
:10115000511C03C0813709F4CEC18EE697E00E948E
:10116000160341E06BE776E08EE697E00E943E03CF
:101170008EE697E00E94F70240E063EA76E08EE6B2
:1011800097E00E943E0340E060E777E0CE0185599A
:101190009F4F0E94D804AD966EAD7FADAD9741E0F4
:1011A0008EE697E00E94850340E06FEA76E08EE6E7
:1011B00097E00E943E0340E060E777E0CE0185596A
:1011C0009F4F0E94D80441E0B6018EE697E00E944E
:1011D0003E0340E06BEB76E08EE697E00E943E0334
:1011E00040E060E777E0CE0185599F4F0E94D80428
:1011F00041E0B7018EE697E00E943E0340E067ECD5
:1012000076E08EE697E00E943E0340E060E777E0FC
:10121000CE0185599F4F0E94D80441E0B2018EE66D
:1012200097E00E943E038EE697E00E94F70240E0BE
:1012300063ED76E08EE697E00E943E0340E060E7D3
:1012400077E0CE0185599F4F0E94D804C656DF4FE4
:1012500088819981CA59D0400E94330540E063EEED
:1012600076E08EE697E00E943E0340E060E777E09C
:10127000CE0185599F4F0E94D804C456DF4F688124
:10128000CC59D040062E000C770B40E08EE697E05C
:101290000E94850341E069E673E08EE697E00E94D4
:1012A0003E0340E063EF76E08EE697E00E943E0367
:1012B00040E060E777E0CE0185599F4F0E94D80457
:1012C000C356DF4F6881CD59D04070E040E08EE6D4
:1012D00097E00E94850341E069E673E08EE697E0BF
:1012E0000E943E0340E063E077E08EE697E00E94D4
:1012F0003E0340E060E777E0CE0185599F4F0E94B2
:10130000D804C256DF4F68817981CE59D04040E081
:101310008EE697E00E94850341E06DEF75E08EE672
:1013200097E00E943E038EE697E00E94F70241E0BC
:1013300063E177E08EE697E00E943E038EE697E059
:101340000E94F70288A899A840E060E777E0CE0104
:1013500085599F4F0E94D804C656DF4FA880B98098
:10136000CA59D0407AA840E060E777E0CE018559BD
:101370009F4F0E94D804C456DF4F8881CC59D0407B
:10138000781206C011E08A149B0419F410E001C021
:1013900011E0BBA840E060E777E0CE0185599F4FA0
:1013A0000E94D804C356DF4F8881CD59D040B8126F
:1013B00099C0ACA8BDA840E060E777E0CE018559B0
:1013C0009F4F0E94D804C256DF4F88819981CE5921
:1013D000D040A816B90611F4112351F141E06AE298
:1013E00077E08EE697E00E943E0341E067E677E013
:1013F0008EE697E00E943E0340E062E972E08EE6EE
:1014000097E00E943E038EE697E00E94E30283335A
:10141000C9F128F4813381F1823389F19BCE813780
:1014200009F469C08337A1F1843309F093CE2DC04C
:1014300041E067E677E08EE697E00E943E0340E0F9
:1014400062E972E08EE697E00E943E038EE697E046
:101450000E94E3028333B1F028F4813369F08233D0
:1014600071F078CE813709F446C0833709F475CE20
:10147000843309F06FCE09C00E9461056ECE0E94D0
:1014800021066BCE0E94100768CE0E94E60765CE4B
:1014900040E060E777E0CE01C6960E94D8048DB7A1
:1014A0009EB7C5970FB6F8949EBF0FBE8DBFADB760
:1014B000BEB7119685E3FE01F69601900D928A95CE
:1014C000E1F780E797E00E94FA040FB6F894DEBFD8
:1014D0000FBECDBF40E060E777E0CE0101960E94ED
:1014E000D8043BCE40E060E777E0CE0185599F4FBE
:1014F0000E94D80473CFC156DF4F0FB6F894DEBFF9
:101500000FBECDBFDF91CF911F91FF90EF90DF9085
:10151000CF90BF90AF909F908F907F905F904F90B3
:101520000895EE0FFF1F0590F491E02D0994FC0142
:1015300088279927E89421912032E9F3293010F087
:101540002E30C8F32B3241F02D3239F4689404C0A8
:101550000E94C00A820F911D219120532A30C0F3AE
:101560001EF4909581959F4F0895BB274A3031F422
:10157000992322F4BDE2909581959F4F0C94C90A5E
:101580007AE0979F902D879F802D910D11240895CB
:10159000BB27FB015527AA27880F991FAA1FA4174D
:1015A00010F0A41B83955051B9F7A05DAA3308F041
:1015B000A95DA193009779F7B111B1931192CB0175
:1015C0000C94E20ADC01FC01672F71917723E1F7AB
:1015D000329704C07C916D9370836291AE17BF0700
:1015E000C8F30895DC01CB01FC01F999FECF06C0D8
:1015F000F2BDE1BDF89A319600B40D9241505040D1
:10160000B8F70895DC01A40FB51F4150504048F0D1
:10161000CB01840F951F2E910E94130B4150504017
:10162000D0F70895262FF999FECF92BD81BDF89A83
:10163000019700B4021639F01FBA20BD0FB6F89416
:10164000FA9AF99A0FBE089510E0C5E3D0E004C0FD
:10165000FE010E94910A2196C633D107C9F7F8947A
:02166000FFCFBA
:101662003200325365747570207065722055415294
:101672005420697320696E61637469766520616EB6
:101682006420506F7274206D756C7469706C69653A
:10169200722069732072756E6E696E67202E2E2E0F
:1016A2002E2E000043757272656E742045455052AD
:1016B2004F4D2056616C7565732100005365726948
:1016C200656E4E723A200000417574686F723A205E
:1016D20020200000436F6D70616E793A2020000077
:1016E20056657273696F6E3A20200000312053658F
:1016F20072766F747970653A2020000032205A6544
:10170200726F696E673A20202020000020646567AE
:1017120072656500003320416E676C6572616E67A9
:10172200653A200000342050574D2064656C617981
:101732003A202000006D730000616E616C6F6720BB
:10174200202D20203530487A000064696769746171
:101752006C202D20313030487A000064696769744A
:10176200616C202D20323030487A0000646967694C
:1017720074616C202D20333030487A00005365723A
:10178200766F204D756C7469706C696572202D2DB1
:101792003E204368616E676520536572766F747987
:1017A2007065000043757272656E742053657276BF
:1017B2006F747970653A20000053656C656374201C
:1017C2006E657720536572766F747970653A0000A2
:1017D2002020312000002020322000002020332051
:1017E20000002020342000002020712045786974F8
:1017F200000053656C6563742D2D3E0000536572C5
:10180200766F204D756C7469706C696572202D2D30
:101812003E204368616E6765207A65726F696E6704
:1018220000005A65726F696E67206973207468657B
:1018320020646576696174696F6E20696E206465E3
:10184200677265652066726F6D20746865206D69C8
:1018520064646C6520706F736974696F6E20282BE5
:101862002C2D290000466F722074686520616E6716
:101872006C652072616E67652063616E206E6F74A5
:10188200206578636565642031383020646567724D
:10189200656520746865207A65726F696E6720637A
:1018A200616E206F6E6C79206265206368616E677D
:1018B2006564000043757272656E742064657669B2
:1018C2006174696F6E3A2000002064656772656515
:1018D2000000456E74657220696E746567657220DA
:1018E20076616C7565206265747765656E200000AF
:1018F20020616E64200000206F7220707265737325
:101902002027712720666F722071756974207769AC
:1019120074686F7574206368616E6765733A20003E
:10192200004E657720646576696174696F6E3A204E
:10193200000056616C7565206D75737420626520B8
:101942006265747765656E200000536572766F205C
:101952004D756C7469706C696572202D2D3E204343
:1019620068616E676520416E676C6572616E67655E
:101972000000416E676C6572616E676520696E205A
:1019820064656772656520757020746F2031383028
:101992002064656772656500004966207A65726F2A
:1019A200696E67206973206E6F74203020746865D9
:1019B2002072616E6765206D7573742062652062A6
:1019C200656C6F77203138302120000054686572D1
:1019D20065666F726520746865206D61782E20726D
:1019E200616E6765206973200000546865206D6927
:1019F2006E696D756D2052616E6765206973203264
:101A020020616E64207468652076616C756520695A
:101A12007320616E20696E74656765722076616CF1
:101A220075652120000043757272656E74207261C3
:101A32006E67653A200000456E746572206E6577A8
:101A42002052616E6765206F722070726573732019
:101A520027712720666F7220717569742077697407
:101A6200686F7574206368616E6765733A20000061
:101A72004E65772072616E67653A20000056616C90
:101A82007565206D75737420626520616E20696EC4
:101A92007465676572206265747765656E203220B1
:101AA200616E64200000536572766F204D756C7410
:101AB20069706C696572202D2D3E204368616E67E6
:101AC200652050574D2064656C6179000050574D78
:101AD2002064656C61792073657473207468652075
:101AE20074696D65205B6D735D2074686520676540
:101AF2006E6572617465642050574D206C61737419
:101B0200732061667465722000006368616E6769A4
:101B12006E672074686520536572766F206F7574E6
:101B220070757420504F52542E20546865206D6990
:101B32006E2056616C7565206973203130302066E5
:101B42006F72203130306D73212000004375727244
:101B5200656E742064656C61793A2000006D7300D3
:101B620000456E746572206E65772050574D206473
:101B7200656C6179206F72207072657373202771B2
:101B82002720666F72207175697420776974686F97
:101B92007574206368616E676573212000004E656D
:101BA200772064656C61793A20000056616C756536
:101BB200206D75737420626520616E20696E746594
:101BC200676572206265747765656E2031303020FA
:101BD200616E642036353533350000536572766F99
:101BE200506F72746D756C7469706C6965722043A4
:101BF2006F6E66696775726174696F6E204D656E8E
:101C020075000053657269656E4E723A200000419C
:101C12007574686F723A2020200000436F6D706106
:101C22006E793A2020000056657273696F6E3A2011
:101C32002000003120536572766F747970653A2006
:101C420020000032205A65726F696E673A202020A8
:101C52002000003320416E676C6572616E67653AE1
:101C6200200000342050574D2064656C61793A2081
:101C7200200000352052656672657368206D656EBE
:101C8200752D76616C7565730000732053617665FE
:101C9200206368616E67657320746F2045455052FA
:101CA2004F4D00007768656E20616E676C6520722B
:101CB200616E6765206973206C6573732074686157
:0E1CC2006E20313830210071204578697400A1
:00000001FF
