:100000000C9436000C9460000C945E000C945E001E
:100010000C94AC000C945E000C945E000C940A01ED
:100020000C945E000C945E000C945E000C945E00D8
:100030000C945E000C945E000C945E000C945E00C8
:100040000C945E000C945E000C945E000C945E00B8
:100050000C945E000C945E000C945E000C945E00A8
:100060000C945E000C945E00A001A90111241FBE37
:10007000CFEFD8E0DEBFCDBF16E0A0E0B1E0E4E90D
:10008000F4E102C005900D92AA3DB107D9F727E02F
:10009000AAEDB6E001C01D92A032B207E1F710E070
:1000A000C5E3D0E004C02197FE010E94AA09C43331
:1000B000D107C9F70E943F010C943D0A0C9400003F
:1000C0001F920F920FB60F9211242F933F934F93CD
:1000D0005F936F937F938F939F93AF93BF93EF93B0
:1000E000FF9380E00E94120386B54A9B08C0289ABD
:1000F00016BC81E080931F070E9412031CC0289841
:1001000090911F079923B9F010921F070E94C00217
:1001100080931A0790911B07891759F080E00E947D
:100120001C031092190781E080931E070E940403AC
:1001300002C010921E07FF91EF91BF91AF919F9166
:100140008F917F916F915F914F913F912F910F9080
:100150000FBE0F901F9018951F920F920FB60F921F
:1001600011242F933F934F935F936F937F938F93BC
:100170009F93AF93BF93EF93FF93339B3AC08091CC
:100180001E07882371F08BB180588BB91092B20092
:1001900010921E0781E00E94330380E00E94040356
:1001A00028C080911D07882341F081E080931C07BF
:1001B00010921D070E9422031CC080911C078823F7
:1001C000C1F0809119078F5F809319079091020108
:1001D000891740F080E00E94220388B1877088B9B7
:1001E00010921C0716BC81E00E94120381E00E945D
:1001F0001C03FF91EF91BF91AF919F918F917F91E0
:100200006F915F914F913F912F910F900FBE0F9083
:100210001F9018951F920F920FB60F9211242F93D3
:100220003F934F935F936F937F938F939F93AF937E
:10023000BF93EF93FF9398B180E2892788B90E941A
:10024000CE0280E00E94330380911C07811103C01D
:1002500081E080931D0781E00E940403FF91EF91EC
:10026000BF91AF919F918F917F916F915F914F91CE
:100270003F912F910F900FBE0F901F901895CF9325
:10028000DF93CDB7DEB7C45DD1090FB6F894DEBFFA
:100290000FBECDBF41E06CED76E0CE0101960E942D
:1002A000F1034E9B15C08AED96E00E9400020E9469
:1002B00086078AED96E00E942B0240E063E071E041
:1002C0008AED96E00E9453028AED96E00E940602B3
:1002D000789440E06CED76E0CE0101960E94F10347
:1002E000ECA8FDA840E06CED76E0CE01C6960E9439
:1002F000F103A9960FADA99740E06CED76E0CE0131
:1003000085599F4F0E94F103C456DF4F1881CC5985
:10031000D04040E06CED76E0CE0180569F4F0E94C9
:10032000F1039701402F612FC153DF4F88819981DD
:10033000CF5CD0400E948403209A3D9A579AFFCF09
:100340008CED96E00E9409048AED96E00E94B201CD
:1003500008958AED96E00E94C2018CED96E00E941D
:100360004B04089523E330E0FC0131832083109295
:10037000C50080818093C400E2ECF0E0808186605B
:100380008083089508950F931F93CF93DF934423A1
:1003900049F1C42FD0E021971C161D06CCF480E053
:1003A000E0ECF0E006EC10E090819923ECF7D80146
:1003B0009C919A3071F09D3061F0DB01A80FB11D66
:1003C0009C938F5F282F30E02C173D076CF301C002
:1003D00080E0841710F08FEF840FFB01E80FF11D10
:1003E000108201C080E0DF91CF911F910F9108959D
:1003F000E0ECF0E080818823ECF78091C60008955E
:10040000E1ECF0E08081886180830895E1ECF0E028
:100410008081877E80830895E0ECF0E0808185FF15
:10042000FDCF8AE08093C600E0ECF0E0808185FF9C
:10043000FDCF8DE08093C60008959C01E0ECF0E0D4
:10044000908195FFFDCF6093C600442319F0C90148
:100450000E940C020895CF93DF93EC0140E06BE122
:100460000E941D0240E06BE5CE010E941D0240E0AB
:1004700062E3CE010E941D0240E06AE4CE010E94C8
:100480001D0240E06BE1CE010E941D0240E06BE5E1
:10049000CE010E941D0240E068E4CE010E941D02D0
:1004A000DF91CF910895FF920F931F93CF93DF9326
:1004B0008C01EB01F42E6881662341F0219640E027
:1004C000C8010E941D0269916111F9CFFF2019F046
:1004D000C8010E940C02DF91CF911F910F91FF90F4
:1004E0000895FF920F931F93CF93DF93CDB7DEB79D
:1004F00027970FB6F894DEBF0FBECDBF8C01CB019E
:10050000F42E4AE0BE016F5F7F4F0E94CE094F2D4F
:10051000BE016F5F7F4FC8010E94530227960FB63E
:10052000F894DEBF0FBECDBFDF91CF911F910F9129
:10053000FF900895FF920F931F93CF93DF9300D006
:1005400000D000D0CDB7DEB78C01CB01F42E4AE04D
:10055000BE016F5F7F4F0E94CE094F2DBE016F5FBE
:100560007F4FC8010E94530226960FB6F894DEBF53
:100570000FBECDBFDF91CF911F910F91FF900895D6
:1005800090911207981730F490911107891720F471
:1005900081E0089580E0089582E008958BB1877C22
:1005A0008BB980911A07813089F018F08230D9F028
:1005B00026C040985B9A80911B07813019F08230E9
:1005C00019F01DC0419A1BC0429A19C041985C9A0B
:1005D00080911B07882319F0823019F010C0409ACF
:1005E0000EC0429A0CC042985D9A80911B078823E6
:1005F00019F0813019F003C0409A01C0419A8091EE
:100600001A0780931B070895882331F0ECE6F0E089
:100610008081886080830895ECE6F0E08081877FA8
:1006200080830895882321F085B5846085BD089571
:1006300085B5887F85BD0895882311F0E89A0895CF
:10064000E898089598B1987F98B9882331F0E1E847
:10065000F0E08081826080830895E1E8F0E08081AD
:10066000887F80830895882331F0E1EBF0E080817A
:10067000846080830895E1EBF0E08081887F80834F
:100680000895E0E8F0E0808182608083A1E8B0E036
:100690008C9188618C93808180688083809115071C
:1006A00090911607909389008093880080910001B3
:1006B000909101018436910591F01CF4C29741F0AC
:1006C0000895883C910591F08C329140B1F00895E5
:1006D0008FE39CE9909387008093860008958FE1D3
:1006E0009EE4909387008093860008958FE097E2C0
:1006F000909387008093860008958AE09AE1909312
:1007000087008093860008959093010180930001F3
:100710006B350CF06AE5663A0CF466EA34E1630383
:10072000B00111246854744F709316076093150735
:100730004695CB0154E1459F80199109112490936E
:10074000180780931707349F600D711D1124709353
:100750001407609313072093020110921F07109251
:100760001E0710921D0710921C078EE4809312073B
:1007700089E8809311078AB188638AB98BB1877C35
:100780008BB984B1866084B985B1897F85B987B119
:10079000836087B988B18C7F88B9E9E6F0E0808111
:1007A00081608083E8E6F0E08081826080830E943F
:1007B0004103E1EBF0E08081826080838CEB8093E9
:1007C000B300E0E7F0E080818260808381E00E94F6
:1007D0001C03089545E350E060E570E00E940B0AB9
:1007E00008950F931F93CF93DF93EC018B01442364
:1007F00019F0CB010E94EA0385E3F801DE010190C4
:100800000D928A95E1F7CE01DF91CF911F910F9163
:1008100008950E94EA03089545E350E060E570E022
:100820000E941B0A0895CF93DF93CDB7DEB7FC017A
:1008300089E390E3918380838CA99DA990AB87A7DE
:100840008EA981AB8FA982AB88AD99AD94AB83ABF8
:10085000CF010E940C04DF91CF910895FC0170AB91
:1008600067A741110E940C040895FC0161AB41117E
:100870000E940C040895FC0162AB41110E940C041B
:1008800008956536710530F0FC0174AB63AB41111E
:100890000E940C04089508958436910599F01CF483
:1008A000C29741F00895883C9105A1F08C329140A7
:1008B000C9F0089541E064E471E08AED96E00E9499
:1008C0005302089541E065E571E08AED96E00E94EB
:1008D0005302089541E066E671E08AED96E00E94D9
:1008E0005302089541E067E771E08AED96E00E94C7
:1008F000530208951F93CF93DF93CDB7DEB7E597EB
:100900000FB6F894DEBF0FBECDBF8AED96E00E9411
:100910002B0241E068E871E08AED96E00E94530204
:100920008AED96E00E940C0240E06FEA71E08AEDE9
:1009300096E00E94530240E06CED76E0CE01019615
:100940000E94F10388A999A90E944C0441E064EC3B
:1009500071E08AED96E00E94530240E06BED71E099
:100960008AED96E00E94530282E390E00E944C04DC
:1009700040E061EE71E08AED96E00E94530284E669
:1009800090E00E944C0440E067EE71E08AED96E052
:100990000E94530288EC90E00E944C0440E06DEE0F
:1009A00071E08AED96E00E9453028CE291E00E9491
:1009B0004C048AED96E00E940C0241E063EF71E086
:1009C0008AED96E00E94530240E06DEF71E08AEDFF
:1009D00096E00E9453028AED96E00E94F801182FDB
:1009E000823389F018F4813331F025C0833399F0D4
:1009F0008433C9F020C040E062E370E08CED96E003
:100A00000E942E0424C040E064E670E08CED96E085
:100A10000E942E041CC040E068EC70E08CED96E073
:100A20000E942E0414C040E06CE271E08CED96E070
:100A30000E942E040CC08AED96E00E940C028AED02
:100A400096E00E940C02113709F05FCF09C08AEDD1
:100A500096E00E940C028AED96E00E940C0255CFAF
:100A6000E5960FB6F894DEBF0FBECDBFDF91CF91F4
:100A70001F910895CF92DF92EF92FF920F931F93F1
:100A8000CF93DF93CDB7DEB7E9970FB6F894DEBF0B
:100A90000FBECDBF40E06CED76E0CE0105960E9422
:100AA000F103DFA88D2D86950F2EF6EADF2EF02DAF
:100AB000D80E40E06CED76E0CE0105960E94F10381
:100AC0009FA996958AE5C82EC91AED2C0D2C000C0D
:100AD000FF080C2D0C2C000C110B8AED96E00E94E7
:100AE0002B0241E068E072E08AED96E00E9453023A
:100AF0008AED96E00E940C0241E06DE272E08AED20
:100B000096E00E94530241E060E772E08AED96E0D1
:100B10000E94530241E06FEA76E08AED96E00E947F
:100B200053028AED96E00E940C0240E06FEB72E007
:100B30008AED96E00E94530240E06CED76E0CE0133
:100B400005960E94F1036EA9062E000C770B40E07B
:100B50008AED96E00E94710241E064ED72E08AED58
:100B600096E00E94530240E06DED72E08AED96E05F
:100B70000E94530240E0B7018AED96E00E947102A4
:100B800040E06BEF72E08AED96E00E94530240E095
:100B9000B8018AED96E00E94710241E062E073E0E4
:100BA0008AED96E00E94530240E06CE273E08AED29
:100BB00096E00E94530244E0BE016F5F7F4F8AEDD2
:100BC00096E00E94C3018981813751F1CE010196DF
:100BD0000E94B0098D1514F0C816DCF440E06DE3F6
:100BE00073E08AED96E00E94530240E0B7018AED7F
:100BF00096E00E94710240E06BEF72E08AED96E0B1
:100C00000E94530241E0B8018AED96E00E94710211
:100C10000CC040E0682F8CED96E00E94350405C0C2
:100C20008AED96E00E940C0205C08AED96E00E94D3
:100C30000C0253CFE9960FB6F894DEBF0FBECDBFBE
:100C4000DF91CF911F910F91FF90EF90DF90CF90A8
:100C50000895FF920F931F93CF93DF93CDB7DEB725
:100C6000E9970FB6F894DEBF0FBECDBF40E06CED44
:100C700076E0CE0105960E94F1038EA9882374F4D4
:100C800040E06CED76E0CE0105960E94F1038EA95E
:100C90000F2EF4EBFF2EF02DF80E0BC040E06CEDA4
:100CA00076E0CE0105960E94F1039EA984EBF82E12
:100CB000F91A0F2D10E08AED96E00E942B0241E018
:100CC00065E573E08AED96E00E9453028AED96E0B6
:100CD0000E940C0241E06DE773E08AED96E00E940D
:100CE000530241E064EA73E08AED96E00E94530209
:100CF00040E067ED73E08AED96E00E94530240E029
:100D0000B8018AED96E00E949A0241E064ED72E03B
:100D10008AED96E00E94530241E065EF73E08AEDB0
:100D200096E00E9453028AED96E00E940C0240E099
:100D300061E374E08AED96E00E94530240E06CEDBE
:100D400076E0CE0105960E94F1036FA970E040E0C5
:100D50008AED96E00E949A0241E064ED72E08AED2D
:100D600096E00E94530241E062E474E08AED96E06E
:100D70000E94530240E06BE774E08AED96E00E9427
:100D8000530244E0BE016F5F7F4F8AED96E00E9400
:100D9000C30189818137E9F0CE0101960E94B00933
:100DA000823010F0F81670F441E068E874E08AEDE3
:100DB00096E00E94530241E0B8018AED96E00E945D
:100DC0009A020CC040E0682F8CED96E00E943B0434
:100DD00005C08AED96E00E940C0205C08AED96E0FF
:100DE0000E940C0268CFE9960FB6F894DEBF0FBEE2
:100DF000CDBFDF91CF911F910F91FF900895CF93B9
:100E0000DF93CDB7DEB7EB970FB6F894DEBF0FBE1A
:100E1000CDBF8AED96E00E942B0241E061EB74E0C9
:100E20008AED96E00E9453028AED96E00E940C0241
:100E300041E068ED74E08AED96E00E94530241E0E3
:100E400065E175E08AED96E00E9453028AED96E036
:100E50000E940C0240E067E575E08AED96E00E9492
:100E6000530240E06CED76E0CE0107960E94F1035C
:100E70006AAD7BAD40E08AED96E00E949A0241E0C7
:100E800068E675E08AED96E00E94530241E06CE668
:100E900075E08AED96E00E94530240E069EA75E051
:100EA0008AED96E00E94530246E0BE016F5F7F4FDD
:100EB0008AED96E00E94C30189818137D1F0CE018D
:100EC00001960E94B0098436910540F441E066EB3A
:100ED00075E08AED96E00E94530206C040E0BC0136
:100EE0008CED96E00E9441048AED96E00E940C028F
:100EF00094CF8AED96E00E940C02EB960FB6F89420
:100F0000DEBF0FBECDBFDF91CF9108954F925F92AC
:100F10007F928F929F92AF92BF92CF92DF92EF9289
:100F2000FF921F93CF93DF93CDB7DEB7CF59D1098F
:100F30000FB6F894DEBF0FBECDBF41E06CED76E09A
:100F4000CE0101960E94F1030F2EFBE6CF2ED12C8D
:100F5000F02DCC0EDD1E82E0C80ED11C0F2EFBE65C
:100F6000EF2EF12CF02DEC0EFD1E96E1E90EF11C9A
:100F70000F2EFBE64F2E512CF02D4C0E5D1E8AE2FB
:100F8000480E511C03C0813709F4CEC18AED96E0AA
:100F90000E942B0241E066EE75E08AED96E00E9429
:100FA00053028AED96E00E940C0240E06EE076E08B
:100FB0008AED96E00E94530240E06CED76E0CE01AF
:100FC00085599F4F0E94F103AD966EAD7FADAD97F1
:100FD00041E08AED96E00E949A0240E06AE176E004
:100FE0008AED96E00E94530240E06CED76E0CE017F
:100FF00085599F4F0E94F10341E0B6018AED96E0CA
:101000000E94530240E066E276E08AED96E00E949C
:10101000530240E06CED76E0CE0185599F4F0E946F
:10102000F10341E0B7018AED96E00E94530240E0EF
:1010300062E376E08AED96E00E94530240E06CEDB8
:1010400076E0CE0185599F4F0E94F10341E0B20145
:101050008AED96E00E9453028AED96E00E940C020F
:1010600040E06EE376E08AED96E00E94530240E0B5
:101070006CED76E0CE0185599F4F0E94F103C65674
:10108000DF4F88819981CA59D0400E944C0440E0CA
:101090006EE476E08AED96E00E94530240E06CED4B
:1010A00076E0CE0185599F4F0E94F103C456DF4F71
:1010B0006881CC59D040062E000C770B40E08AEDB9
:1010C00096E00E949A0241E064ED72E08AED96E0BB
:1010D0000E94530240E06EE576E08AED96E00E94C1
:1010E000530240E06CED76E0CE0185599F4F0E949F
:1010F000F103C356DF4F6881CD59D04070E040E026
:101100008AED96E00E949A0241E064ED72E08AED79
:1011100096E00E94530240E06EE676E08AED96E0AB
:101120000E94530240E06CED76E0CE0185599F4F5E
:101130000E94F103C256DF4F68817981CE59D040B9
:1011400040E08AED96E00E949A0241E068E675E090
:101150008AED96E00E9453028AED96E00E940C020E
:1011600041E06EE776E08AED96E00E9453028AED58
:1011700096E00E940C0288A899A840E06CED76E009
:10118000CE0185599F4F0E94F103C656DF4FA880BC
:10119000B980CA59D0407AA840E06CED76E0CE0123
:1011A00085599F4F0E94F103C456DF4F8881CC5967
:1011B000D040781206C011E08A149B0419F410E0A4
:1011C00001C011E0BBA840E06CED76E0CE0185598E
:1011D0009F4F0E94F103C356DF4F8881CD59D04005
:1011E000B81299C0ACA8BDA840E06CED76E0CE0185
:1011F00085599F4F0E94F103C256DF4F8881998124
:10120000CE59D040A816B90611F4112351F141E08E
:1012100065E976E08AED96E00E94530241E062EDD6
:1012200076E08AED96E00E94530240E06DEF71E0B7
:101230008AED96E00E9453028AED96E00E94F80142
:101240008333C9F128F4813381F1823389F19BCE54
:10125000813709F469C08337A1F1843309F093CE53
:101260002DC041E062ED76E08AED96E00E945302E7
:1012700040E06DEF71E08AED96E00E9453028AED46
:1012800096E00E94F8018333B1F028F4813369F0CD
:10129000823371F078CE813709F446C0833709F480
:1012A00075CE843309F06FCE09C00E947A046ECEE9
:1012B0000E943A056BCE0E94290668CE0E94FF0666
:1012C00065CE40E06CED76E0CE01C6960E94F1035B
:1012D0008DB79EB7C5970FB6F8949EBF0FBE8DBF52
:1012E000ADB7BEB7119685E3FE01F69601900D925B
:1012F0008A95E1F78CED96E00E9413040FB6F894FE
:10130000DEBF0FBECDBF40E06CED76E0CE010196B2
:101310000E94F1033BCE40E06CED76E0CE018559B2
:101320009F4F0E94F10373CFC156DF4F0FB6F89461
:10133000DEBF0FBECDBFDF91CF911F91FF90EF9029
:10134000DF90CF90BF90AF909F908F907F905F90F5
:101350004F900895EE0FFF1F0590F491E02D099432
:10136000FC0188279927E89421912032E9F329305C
:1013700010F02E30C8F32B3241F02D3239F468943E
:1013800004C00E94D909820F911D219120532A3057
:10139000C0F31EF4909581959F4F0895BB274A3066
:1013A00031F4992322F4BDE2909581959F4F0C94DE
:1013B000E2097AE0979F902D879F802D910D11244F
:1013C0000895BB27FB015527AA27880F991FAA1F3D
:1013D000A41710F0A41B83955051B9F7A05DAA3350
:1013E00008F0A95DA193009779F7B111B19311921B
:1013F000CB010C94FB09DC01FC01672F7191772371
:10140000E1F7329704C07C916D9370836291AE17BF
:10141000BF07C8F30895DC01CB01FC01F999FECFA9
:1014200006C0F2BDE1BDF89A319600B40D9241506C
:101430005040B8F70895DC01A40FB51F415050404B
:1014400048F0CB01840F951F2E910E942C0A415029
:101450005040D0F70895262FF999FECF92BD81BD57
:10146000F89A019700B4021639F01FBA20BD0FB6E2
:10147000F894FA9AF99A0FBE089510E0C5E3D0E007
:1014800004C0FE010E94AA092196C633D107C9F7FC
:04149000F894FFCFFE
:101494003200325365747570207065722055415264
:1014A4005420697320696E61637469766520616E86
:1014B4006420506F7274206D756C7469706C69650A
:1014C400722069732072756E6E696E67202E2E2EDF
:1014D4002E2E0000616E616C6F6720202D20203558
:1014E40030487A00006469676974616C202D20318A
:1014F4003030487A00006469676974616C202D207B
:10150400323030487A00006469676974616C202D58
:1015140020333030487A0000536572766F204D7561
:101524006C7469706C696572202D2D3E204368616E
:101534006E676520536572766F7479706500004339
:10154400757272656E7420536572766F7479706506
:101554003A20000053656C656374206E65772053F0
:101564006572766F747970653A000020203120002E
:1015740000202032200000202033200000202034CE
:101584002000002020712045786974000053656CA8
:101594006563742D2D3E0000536572766F204D7582
:1015A4006C7469706C696572202D2D3E20436861EE
:1015B4006E6765207A65726F696E6700005A65729E
:1015C4006F696E6720697320746865206465766945
:1015D4006174696F6E20696E206465677265652049
:1015E40066726F6D20746865206D6964646C652033
:1015F400706F736974696F6E20282B2C2D2900007D
:10160400466F722074686520616E676C6520726134
:101614006E67652063616E206E6F74206578636504
:1016240065642031383020646567726565207468AC
:1016340065207A65726F696E672063616E206F6ED4
:101644006C79206265206368616E6765640000439D
:10165400757272656E7420646576696174696F6E03
:101664003A200000206465677265650000456E7469
:10167400657220696E74656765722076616C756544
:10168400206265747765656E20000020616E6420B9
:101694000000206F722070726573732027712720F9
:1016A400666F72207175697420776974686F7574D8
:1016B400206368616E6765733A2000004E65772089
:1016C400646576696174696F6E3A20000056616CD6
:1016D4007565206D75737420626520626574776525
:1016E400656E200000536572766F204D756C7469C9
:1016F400706C696572202D2D3E204368616E6765AC
:1017040020416E676C6572616E67650000416E67AB
:101714006C6572616E676520696E206465677265C9
:101724006520757020746F203138302064656772CD
:10173400656500004966207A65726F696E67206985
:1017440073206E6F742030207468652072616E6738
:1017540065206D7573742062652062656C6F7720F7
:10176400313830212000005468657265666F7265F7
:1017740020746865206D61782E2072616E67652023
:101784006973200000546865206D696E696D756D1C
:101794002052616E6765206973203220616E642077
:1017A4007468652076616C756520697320616E20AC
:1017B400696E74656765722076616C7565212000B9
:1017C4000043757272656E742072616E67653A20AB
:1017D4000000456E746572206E65772052616E67F5
:1017E40065206F72207072657373202771272066DD
:1017F4006F72207175697420776974686F757420CD
:101804006368616E6765733A2000004E65772072E5
:10181400616E67653A20000056616C7565206D75D0
:10182400737420626520616E20696E7465676572E9
:10183400206265747765656E203220616E642000D5
:1018440000536572766F204D756C7469706C6965B0
:1018540072202D2D3E204368616E67652050574DE0
:101864002064656C6179000050574D2064656C619B
:10187400792073657473207468652074696D6520BC
:101884005B6D735D207468652067656E6572617455
:1018940065642050574D206C6173747320616674C5
:1018A40065722000006368616E67696E6720746802
:1018B4006520536572766F206F757470757420504F
:1018C4004F52542E20546865206D696E2056616C09
:1018D40075652069732031303020666F7220313095
:1018E400306D732120000043757272656E7420643C
:1018F400656C61793A2000006D730000456E746573
:1019040072206E65772050574D2064656C61792094
:101914006F722070726573732027712720666F724F
:10192400207175697420776974686F7574206368B1
:10193400616E676573212000004E65772064656CD5
:1019440061793A20000056616C7565206D75737479
:1019540020626520616E20696E746567657220621D
:1019640065747765656E2031303020616E64203691
:10197400353533350000536572766F506F72746D70
:10198400756C7469706C69657220436F6E66696703
:1019940075726174696F6E204D656E7500005365D4
:1019A4007269656E4E723A200000417574686F72F8
:1019B4003A2020200000436F6D70616E793A202038
:1019C400000056657273696F6E3A20200000312062
:1019D400536572766F747970653A20200000322066
:1019E4005A65726F696E673A202020200000332008
:1019F400416E676C6572616E67653A200000342041
:101A040050574D2064656C61793A202000003520E0
:101A140052656672657368206D656E752D76616CAE
:101A24007565730000732053617665206368616E89
:101A340067657320746F20454550524F4D00007701
:101A440068656E20616E676C652072616E676520E3
:101A54006973206C657373207468616E203138304B
:0A1A6400210071204578697400002C
:00000001FF
