:1000000033C0000041C000003FC000003DC0000000
:100010003BC0000039C0000037C0000035C0000000
:1000200033C0000031C000002FC000002DC0000010
:100030002BC0000029C0000027C0000025C0000020
:1000400072C0000021C000001FC000001DC00000E1
:100050001BC0000019C0000017C0000015C0000040
:1000600013C0000011C0000011241FBECFEFD8E064
:10007000DEBFCDBF21E0A0E0B1E001C01D92A930FC
:10008000B207E1F702D0DFC0BBCF84B1866084B98C
:100090008AB18C618AB98BB183608BB9A3E0B1E07E
:1000A0008CED95E011969C938E9384E991E11596E1
:1000B0009C938E93149788EB9BE013969C938E935E
:1000C0001297C0E8D0E0888182608883E1E8F0E0A0
:1000D0008081886180838881806A88838FE39CE93E
:1000E0009093870080938600CEE6D0E0888181607F
:1000F00088838D919C9190938B0080938A001092BD
:10010000020180EB94E09093890080938800109224
:1001100001011092000185B5856085BD80818260F6
:1001200080837894FFCF1F920F920FB60F92112405
:100130002F933F938F939F93EF93FF9389B1837096
:1001400090910201891364C0209100013091010156
:100150002931310508F463C05BC01092010110928F
:100160000001809102018230E8F5809102018F5FE9
:1001700080930201E0910201F0E0EE0FFF1FED5FBE
:10018000FE4F8081918190938B0080938A002AC0DA
:10019000109201011092000180910201882311F157
:1001A00080910201815080930201E0910201F0E010
:1001B000EE0FFF1FED5FFE4F8081918190938B00CA
:1001C00080938A000FC080910001909101014997AE
:1001D00048F48091000190910101019690930101F2
:1001E0008093000180910201882319F0813031F061
:1001F0000AC08BB1837F8BB95C9A1AC08BB18B7E9E
:100200008BB95B9A15C08BB1877E8BB95A9A10C097
:10021000813009F4A2CF823009F4BACFD4CF8091D3
:1002200000019091010101969093010180930001DA
:10023000FF91EF919F918F913F912F910F900FBE62
:0A0240000F901F901895F894FFCF5F
:00000001FF
