S0150000536572766F54657374556E69742E73726563C0
S113000033C0000041C000003FC000003DC00000FC
S11300103BC0000039C0000037C0000035C00000FC
S113002033C0000031C000002FC000002DC000000C
S11300302BC0000029C0000027C0000025C000001C
S113004071C0000021C000001FC000001DC00000DE
S11300501BC0000019C0000017C0000015C000003C
S113006013C0000011C0000011241FBECFEFD8E060
S1130070DEBFCDBF21E0A0E0B1E001C01D92A930F8
S1130080B207E1F702D0D6C0BBCF84B1866084B991
S11300908AB18C618AB98BB183608BB9E3E0F1E0FA
S11300A08CED95E09183808384E991E19583848349
S11300B088EB9BE093838283C0E8D0E088818260F0
S11300C08883A1E8B0E08C9188618C938881806AF0
S11300D088838FE39CE99093870080938600CEE623
S11300E0D0E088818160888380819181CAE8D0E0F2
S11300F0998388831092020182819381909389006D
S1130100809388008281938199838883109201016E
S11301101092000185B5856085BD8C9182608C93B9
S11301207894FFCF1F920F920FB60F9211242F9342
S11301303F938F939F93EF93FF9389B12091000195
S1130140309101012931310550F4809100019091E1
S113015001010196909301018093000160C08370B6
S1130160813019F08230E1F036C010920101109212
S11301700001809102018823E9F1809102018150FC
S113018080930201E0910201F0E0EE0FFF1FED5FAA
S1130190FE4F8081918190938B0080938A002AC0C6
S11301A0109201011092000180910201823010F539
S11301B0809102018F5F80930201E0910201F0E0DF
S11301C0EE0FFF1FED5FFE4F8081918190938B00B6
S11301D080938A000FC0809100019091010149979A
S11301E048F48091000190910101019690930101DE
S11301F08093000180910201882319F0813031F04D
S11302000AC08BB1837F8BB95C9A09C08BB18B7E9A
S11302108BB95B9A04C08BB1877E8BB95A9AFF91D4
S1130220EF919F918F913F912F910F900FBE0F905F
S10B02301F901895F894FFCF0C
S9030000FC
